{"abi":[{"type":"constructor","inputs":[],"stateMutability":"nonpayable"},{"type":"function","name":"UPGRADE_INTERFACE_VERSION","inputs":[],"outputs":[{"name":"","type":"string","internalType":"string"}],"stateMutability":"view"},{"type":"function","name":"claim","inputs":[{"name":"r","type":"uint64","internalType":"uint64"},{"name":"account","type":"address","internalType":"address"},{"name":"amount","type":"uint256","internalType":"uint256"},{"name":"merkleProof","type":"bytes32[]","internalType":"bytes32[]"}],"outputs":[],"stateMutability":"nonpayable"},{"type":"function","name":"claimV2","inputs":[{"name":"r","type":"uint64","internalType":"uint64"},{"name":"account","type":"address","internalType":"address"},{"name":"merkleProof","type":"bytes32[]","internalType":"bytes32[]"}],"outputs":[],"stateMutability":"nonpayable"},{"type":"function","name":"i_rewardAmount","inputs":[],"outputs":[{"name":"","type":"uint256","internalType":"uint256"}],"stateMutability":"view"},{"type":"function","name":"i_token","inputs":[],"outputs":[{"name":"","type":"address","internalType":"contract IERC20"}],"stateMutability":"view"},{"type":"function","name":"initialize","inputs":[{"name":"initialOwner","type":"address","internalType":"address"}],"outputs":[],"stateMutability":"nonpayable"},{"type":"function","name":"isClaimed","inputs":[{"name":"r","type":"uint64","internalType":"uint64"},{"name":"a","type":"address","internalType":"address"}],"outputs":[{"name":"","type":"bool","internalType":"bool"}],"stateMutability":"view"},{"type":"function","name":"isClaimedV2","inputs":[{"name":"r","type":"uint64","internalType":"uint64"},{"name":"account","type":"address","internalType":"address"}],"outputs":[{"name":"","type":"bool","internalType":"bool"}],"stateMutability":"view"},{"type":"function","name":"owner","inputs":[],"outputs":[{"name":"","type":"address","internalType":"address"}],"stateMutability":"view"},{"type":"function","name":"proxiableUUID","inputs":[],"outputs":[{"name":"","type":"bytes32","internalType":"bytes32"}],"stateMutability":"view"},{"type":"function","name":"renounceOwnership","inputs":[],"outputs":[],"stateMutability":"nonpayable"},{"type":"function","name":"rescue","inputs":[{"name":"to","type":"address","internalType":"address"},{"name":"amount","type":"uint256","internalType":"uint256"}],"outputs":[],"stateMutability":"nonpayable"},{"type":"function","name":"rewardAmount","inputs":[],"outputs":[{"name":"","type":"uint256","internalType":"uint256"}],"stateMutability":"view"},{"type":"function","name":"s_merkleRoot","inputs":[],"outputs":[{"name":"","type":"bytes32","internalType":"bytes32"}],"stateMutability":"view"},{"type":"function","name":"s_round","inputs":[],"outputs":[{"name":"","type":"uint64","internalType":"uint64"}],"stateMutability":"view"},{"type":"function","name":"setRewardAmount","inputs":[{"name":"newAmount","type":"uint256","internalType":"uint256"}],"outputs":[],"stateMutability":"nonpayable"},{"type":"function","name":"setRoot","inputs":[{"name":"newRoot","type":"bytes32","internalType":"bytes32"},{"name":"newRound","type":"uint64","internalType":"uint64"}],"outputs":[],"stateMutability":"nonpayable"},{"type":"function","name":"transferOwnership","inputs":[{"name":"newOwner","type":"address","internalType":"address"}],"outputs":[],"stateMutability":"nonpayable"},{"type":"function","name":"upgradeToAndCall","inputs":[{"name":"newImplementation","type":"address","internalType":"address"},{"name":"data","type":"bytes","internalType":"bytes"}],"outputs":[],"stateMutability":"payable"},{"type":"function","name":"version","inputs":[],"outputs":[{"name":"","type":"uint256","internalType":"uint256"}],"stateMutability":"pure"},{"type":"event","name":"Claimed","inputs":[{"name":"round","type":"uint64","indexed":true,"internalType":"uint64"},{"name":"account","type":"address","indexed":true,"internalType":"address"},{"name":"amount","type":"uint256","indexed":false,"internalType":"uint256"}],"anonymous":false},{"type":"event","name":"Initialized","inputs":[{"name":"version","type":"uint64","indexed":false,"internalType":"uint64"}],"anonymous":false},{"type":"event","name":"OwnershipTransferred","inputs":[{"name":"previousOwner","type":"address","indexed":true,"internalType":"address"},{"name":"newOwner","type":"address","indexed":true,"internalType":"address"}],"anonymous":false},{"type":"event","name":"RewardAmountUpdated","inputs":[{"name":"newAmount","type":"uint256","indexed":false,"internalType":"uint256"}],"anonymous":false},{"type":"event","name":"RootUpdated","inputs":[{"name":"newRoot","type":"bytes32","indexed":true,"internalType":"bytes32"},{"name":"newRound","type":"uint64","indexed":true,"internalType":"uint64"}],"anonymous":false},{"type":"event","name":"Upgraded","inputs":[{"name":"implementation","type":"address","indexed":true,"internalType":"address"}],"anonymous":false},{"type":"error","name":"AddressEmptyCode","inputs":[{"name":"target","type":"address","internalType":"address"}]},{"type":"error","name":"ERC1967InvalidImplementation","inputs":[{"name":"implementation","type":"address","internalType":"address"}]},{"type":"error","name":"ERC1967NonPayable","inputs":[]},{"type":"error","name":"FailedCall","inputs":[]},{"type":"error","name":"InvalidInitialization","inputs":[]},{"type":"error","name":"MerkleDistributor__AlreadyClaimed","inputs":[]},{"type":"error","name":"MerkleDistributor__BadProof","inputs":[]},{"type":"error","name":"MerkleDistributor__RootZero","inputs":[]},{"type":"error","name":"MerkleDistributor__RoundBackwards","inputs":[]},{"type":"error","name":"MerkleDistributor__TransferFailed","inputs":[]},{"type":"error","name":"MerkleDistributor__WrongAmount","inputs":[]},{"type":"error","name":"MerkleDistributor__WrongRound","inputs":[]},{"type":"error","name":"NotInitializing","inputs":[]},{"type":"error","name":"OwnableInvalidOwner","inputs":[{"name":"owner","type":"address","internalType":"address"}]},{"type":"error","name":"OwnableUnauthorizedAccount","inputs":[{"name":"account","type":"address","internalType":"address"}]},{"type":"error","name":"UUPSUnauthorizedCallContext","inputs":[]},{"type":"error","name":"UUPSUnsupportedProxiableUUID","inputs":[{"name":"slot","type":"bytes32","internalType":"bytes32"}]}],"bytecode":{"object":"0x60e06040523073ffffffffffffffffffffffffffffffffffffffff1660809073ffffffffffffffffffffffffffffffffffffffff16815250348015610042575f5ffd5b505f5f61005361009660201b60201c565b8173ffffffffffffffffffffffffffffffffffffffff1660a08173ffffffffffffffffffffffffffffffffffffffff16815250508060c081815250505050610211565b5f6100a561019460201b60201c565b9050805f0160089054906101000a900460ff16156100ef576040517ff92ee8a900000000000000000000000000000000000000000000000000000000815260040160405180910390fd5b67ffffffffffffffff8016815f015f9054906101000a900467ffffffffffffffff1667ffffffffffffffff16146101915767ffffffffffffffff815f015f6101000a81548167ffffffffffffffff021916908367ffffffffffffffff1602179055507fc7f505b2f371ae2175ee4913f4499e1f2633a7b5936321eed1cdaeb6115181d267ffffffffffffffff60405161018891906101f8565b60405180910390a15b50565b5f5f6101a46101ad60201b60201c565b90508091505090565b5f7ff0c57e16840df040f15088dc2f81fe391c3923bec73e23a9662efc9c229c6a005f1b905090565b5f67ffffffffffffffff82169050919050565b6101f2816101d6565b82525050565b5f60208201905061020b5f8301846101e9565b92915050565b60805160a05160c05161243061026c5f395f8181610b2801528181610c0701526111f801525f818161069901528181610a5301528181610b810152610e2c01525f81816112c30152818161131801526114d201526124305ff3fe60806040526004361061011e575f3560e01c80638750cab01161009f578063ad3cb1cc11610063578063ad3cb1cc14610390578063ae82de5f146103ba578063c4d66de8146103e4578063f2fde38b1461040c578063f7b2a7be146104345761011e565b80638750cab0146102c25780638da5cb5b146102ec5780639608b23214610316578063a2f94bd314610340578063a8a65a78146103685761011e565b806352d1902d116100e657806352d1902d1461020657806353f1906e1461023057806354fd4d501461025a578063715018a6146102845780637a4e4ecf1461029a5761011e565b806316e2d4b21461012257806336f136ef1461014a5780633d00e43b146101725780634f1ef286146101ae5780634f4c18c7146101ca575b5f5ffd5b34801561012d575f5ffd5b5061014860048036038101906101439190611c27565b61045e565b005b348015610155575f5ffd5b50610170600480360381019061016b9190611ccb565b6107c9565b005b34801561017d575f5ffd5b5061019860048036038101906101939190611d09565b6108d9565b6040516101a59190611d61565b60405180910390f35b6101c860048036038101906101c39190611eb2565b61094f565b005b3480156101d5575f5ffd5b506101f060048036038101906101eb9190611d09565b61096e565b6040516101fd9190611d61565b60405180910390f35b348015610211575f5ffd5b5061021a6109e4565b6040516102279190611f1b565b60405180910390f35b34801561023b575f5ffd5b50610244610a15565b6040516102519190611f43565b60405180910390f35b348015610265575f5ffd5b5061026e610a2e565b60405161027b9190611f74565b60405180910390f35b34801561028f575f5ffd5b50610298610a36565b005b3480156102a5575f5ffd5b506102c060048036038101906102bb9190611fb7565b610a49565b005b3480156102cd575f5ffd5b506102d6610b26565b6040516102e39190611f74565b60405180910390f35b3480156102f7575f5ffd5b50610300610b4a565b60405161030d9190612004565b60405180910390f35b348015610321575f5ffd5b5061032a610b7f565b6040516103379190612078565b60405180910390f35b34801561034b575f5ffd5b5061036660048036038101906103619190612091565b610ba3565b005b348015610373575f5ffd5b5061038e60048036038101906103899190612115565b610f5c565b005b34801561039b575f5ffd5b506103a4610fa5565b6040516103b191906121a0565b60405180910390f35b3480156103c5575f5ffd5b506103ce610fde565b6040516103db9190611f1b565b60405180910390f35b3480156103ef575f5ffd5b5061040a600480360381019061040591906121c0565b610fe3565b005b348015610417575f5ffd5b50610432600480360381019061042d91906121c0565b611164565b005b34801561043f575f5ffd5b506104486111e8565b6040516104559190611f74565b60405180910390f35b60015f9054906101000a900467ffffffffffffffff1667ffffffffffffffff168467ffffffffffffffff16146104c0576040517f956060cb00000000000000000000000000000000000000000000000000000000815260040160405180910390fd5b60365f8567ffffffffffffffff1667ffffffffffffffff1681526020019081526020015f205f8473ffffffffffffffffffffffffffffffffffffffff1673ffffffffffffffffffffffffffffffffffffffff1681526020019081526020015f205f9054906101000a900460ff1615610564576040517f493ab40800000000000000000000000000000000000000000000000000000000815260040160405180910390fd5b5f61056d6111e8565b90505f84828760405160200161058593929190612284565b6040516020818303038152906040528051906020012090506105e98484808060200260200160405190810160405280939291908181526020018383602002808284375f81840152601f19601f820116905080830192505050505050505f5483611224565b61061f576040517f5ab5e77700000000000000000000000000000000000000000000000000000000815260040160405180910390fd5b600160365f8867ffffffffffffffff1667ffffffffffffffff1681526020019081526020015f205f8773ffffffffffffffffffffffffffffffffffffffff1673ffffffffffffffffffffffffffffffffffffffff1681526020019081526020015f205f6101000a81548160ff0219169083151502179055507f000000000000000000000000000000000000000000000000000000000000000073ffffffffffffffffffffffffffffffffffffffff1663a9059cbb86846040518363ffffffff1660e01b81526004016106f29291906122c0565b6020604051808303815f875af115801561070e573d5f5f3e3d5ffd5b505050506040513d601f19601f820116820180604052508101906107329190612311565b610768576040517f8f8dfe4e00000000000000000000000000000000000000000000000000000000815260040160405180910390fd5b8473ffffffffffffffffffffffffffffffffffffffff168667ffffffffffffffff167ff20fc6923b8057dd0c3b606483fcaa038229bb36ebc35a0040e3eaa39cf97b17846040516107b99190611f74565b60405180910390a3505050505050565b6107d161123a565b5f5f1b820361080c576040517f6bc7c09500000000000000000000000000000000000000000000000000000000815260040160405180910390fd5b60015f9054906101000a900467ffffffffffffffff1667ffffffffffffffff168167ffffffffffffffff16101561086f576040517f4a0f36fa00000000000000000000000000000000000000000000000000000000815260040160405180910390fd5b815f819055508060015f6101000a81548167ffffffffffffffff021916908367ffffffffffffffff1602179055508067ffffffffffffffff16827f7c0fdbdb9bee7dc4ba5d3a1a589ec1d82c655f7242a368a57cc625bb7654261360405160405180910390a35050565b5f60025f8467ffffffffffffffff1667ffffffffffffffff1681526020019081526020015f205f8373ffffffffffffffffffffffffffffffffffffffff1673ffffffffffffffffffffffffffffffffffffffff1681526020019081526020015f205f9054906101000a900460ff16905092915050565b6109576112c1565b610960826113a7565b61096a82826113b2565b5050565b5f60365f8467ffffffffffffffff1667ffffffffffffffff1681526020019081526020015f205f8373ffffffffffffffffffffffffffffffffffffffff1673ffffffffffffffffffffffffffffffffffffffff1681526020019081526020015f205f9054906101000a900460ff16905092915050565b5f6109ed6114d0565b7f360894a13ba1a3210667c828492db98dca3e2076cc3735a920a3ca505d382bbc5f1b905090565b60015f9054906101000a900467ffffffffffffffff1681565b5f6002905090565b610a3e61123a565b610a475f611557565b565b610a5161123a565b7f000000000000000000000000000000000000000000000000000000000000000073ffffffffffffffffffffffffffffffffffffffff1663a9059cbb83836040518363ffffffff1660e01b8152600401610aac9291906122c0565b6020604051808303815f875af1158015610ac8573d5f5f3e3d5ffd5b505050506040513d601f19601f82011682018060405250810190610aec9190612311565b610b22576040517f8f8dfe4e00000000000000000000000000000000000000000000000000000000815260040160405180910390fd5b5050565b7f000000000000000000000000000000000000000000000000000000000000000081565b5f5f610b54611628565b9050805f015f9054906101000a900473ffffffffffffffffffffffffffffffffffffffff1691505090565b7f000000000000000000000000000000000000000000000000000000000000000081565b60015f9054906101000a900467ffffffffffffffff1667ffffffffffffffff168567ffffffffffffffff1614610c05576040517f956060cb00000000000000000000000000000000000000000000000000000000815260040160405180910390fd5b7f00000000000000000000000000000000000000000000000000000000000000008314610c5e576040517f6517b4ce00000000000000000000000000000000000000000000000000000000815260040160405180910390fd5b60025f8667ffffffffffffffff1667ffffffffffffffff1681526020019081526020015f205f8573ffffffffffffffffffffffffffffffffffffffff1673ffffffffffffffffffffffffffffffffffffffff1681526020019081526020015f205f9054906101000a900460ff1615610d02576040517f493ab40800000000000000000000000000000000000000000000000000000000815260040160405180910390fd5b5f848487604051602001610d1893929190612284565b604051602081830303815290604052805190602001209050610d7c8383808060200260200160405190810160405280939291908181526020018383602002808284375f81840152601f19601f820116905080830192505050505050505f5483611224565b610db2576040517f5ab5e77700000000000000000000000000000000000000000000000000000000815260040160405180910390fd5b600160025f8867ffffffffffffffff1667ffffffffffffffff1681526020019081526020015f205f8773ffffffffffffffffffffffffffffffffffffffff1673ffffffffffffffffffffffffffffffffffffffff1681526020019081526020015f205f6101000a81548160ff0219169083151502179055507f000000000000000000000000000000000000000000000000000000000000000073ffffffffffffffffffffffffffffffffffffffff1663a9059cbb86866040518363ffffffff1660e01b8152600401610e859291906122c0565b6020604051808303815f875af1158015610ea1573d5f5f3e3d5ffd5b505050506040513d601f19601f82011682018060405250810190610ec59190612311565b610efb576040517f8f8dfe4e00000000000000000000000000000000000000000000000000000000815260040160405180910390fd5b8473ffffffffffffffffffffffffffffffffffffffff168667ffffffffffffffff167ff20fc6923b8057dd0c3b606483fcaa038229bb36ebc35a0040e3eaa39cf97b1786604051610f4c9190611f74565b60405180910390a3505050505050565b610f6461123a565b806035819055507f9639dea65e74b72b1b86ccf3e4f9b6d23b88d2aad2f103d0b3afe394e67edade81604051610f9a9190611f74565b60405180910390a150565b6040518060400160405280600581526020017f352e302e3000000000000000000000000000000000000000000000000000000081525081565b5f5481565b5f610fec61164f565b90505f815f0160089054906101000a900460ff161590505f825f015f9054906101000a900467ffffffffffffffff1690505f5f8267ffffffffffffffff161480156110345750825b90505f60018367ffffffffffffffff1614801561106757505f3073ffffffffffffffffffffffffffffffffffffffff163b145b905081158015611075575080155b156110ac576040517ff92ee8a900000000000000000000000000000000000000000000000000000000815260040160405180910390fd5b6001855f015f6101000a81548167ffffffffffffffff021916908367ffffffffffffffff16021790555083156110f9576001855f0160086101000a81548160ff0219169083151502179055505b61110286611662565b831561115c575f855f0160086101000a81548160ff0219169083151502179055507fc7f505b2f371ae2175ee4913f4499e1f2633a7b5936321eed1cdaeb6115181d260016040516111539190612375565b60405180910390a15b505050505050565b61116c61123a565b5f73ffffffffffffffffffffffffffffffffffffffff168173ffffffffffffffffffffffffffffffffffffffff16036111dc575f6040517f1e4fbdf70000000000000000000000000000000000000000000000000000000081526004016111d39190612004565b60405180910390fd5b6111e581611557565b50565b5f5f60355490505f810361121c577f000000000000000000000000000000000000000000000000000000000000000061121e565b805b91505090565b5f826112308584611676565b1490509392505050565b6112426116c7565b73ffffffffffffffffffffffffffffffffffffffff16611260610b4a565b73ffffffffffffffffffffffffffffffffffffffff16146112bf576112836116c7565b6040517f118cdaa70000000000000000000000000000000000000000000000000000000081526004016112b69190612004565b60405180910390fd5b565b7f000000000000000000000000000000000000000000000000000000000000000073ffffffffffffffffffffffffffffffffffffffff163073ffffffffffffffffffffffffffffffffffffffff16148061136e57507f000000000000000000000000000000000000000000000000000000000000000073ffffffffffffffffffffffffffffffffffffffff166113556116ce565b73ffffffffffffffffffffffffffffffffffffffff1614155b156113a5576040517fe07c8dba00000000000000000000000000000000000000000000000000000000815260040160405180910390fd5b565b6113af61123a565b50565b8173ffffffffffffffffffffffffffffffffffffffff166352d1902d6040518163ffffffff1660e01b8152600401602060405180830381865afa92505050801561141a57506040513d601f19601f8201168201806040525081019061141791906123a2565b60015b61145b57816040517f4c9c8ce30000000000000000000000000000000000000000000000000000000081526004016114529190612004565b60405180910390fd5b7f360894a13ba1a3210667c828492db98dca3e2076cc3735a920a3ca505d382bbc5f1b81146114c157806040517faa1d49a40000000000000000000000000000000000000000000000000000000081526004016114b89190611f1b565b60405180910390fd5b6114cb8383611721565b505050565b7f000000000000000000000000000000000000000000000000000000000000000073ffffffffffffffffffffffffffffffffffffffff163073ffffffffffffffffffffffffffffffffffffffff1614611555576040517fe07c8dba00000000000000000000000000000000000000000000000000000000815260040160405180910390fd5b565b5f611560611628565b90505f815f015f9054906101000a900473ffffffffffffffffffffffffffffffffffffffff16905082825f015f6101000a81548173ffffffffffffffffffffffffffffffffffffffff021916908373ffffffffffffffffffffffffffffffffffffffff1602179055508273ffffffffffffffffffffffffffffffffffffffff168173ffffffffffffffffffffffffffffffffffffffff167f8be0079c531659141344cd1fd0a4f28419497f9722a3daafe3b4186f6b6457e060405160405180910390a3505050565b5f7f9016d09d72d40fdae2fd8ceac6b6234c7706214fd39c1cd1e609a0528c199300905090565b5f5f611659611793565b90508091505090565b61166a6117bc565b611673816117fc565b50565b5f5f8290505f5f90505b84518110156116bc576116ad828683815181106116a05761169f6123cd565b5b6020026020010151611880565b91508080600101915050611680565b508091505092915050565b5f33905090565b5f6116fa7f360894a13ba1a3210667c828492db98dca3e2076cc3735a920a3ca505d382bbc5f1b6118aa565b5f015f9054906101000a900473ffffffffffffffffffffffffffffffffffffffff16905090565b61172a826118b3565b8173ffffffffffffffffffffffffffffffffffffffff167fbc7cd75a20ee27fd9adebab32041f755214dbc6bffa90cc0225b39da2e5c2d3b60405160405180910390a25f8151111561178657611780828261197c565b5061178f565b61178e611a6d565b5b5050565b5f7ff0c57e16840df040f15088dc2f81fe391c3923bec73e23a9662efc9c229c6a005f1b905090565b6117c4611aa9565b6117fa576040517fd7e6bcf800000000000000000000000000000000000000000000000000000000815260040160405180910390fd5b565b6118046117bc565b5f73ffffffffffffffffffffffffffffffffffffffff168173ffffffffffffffffffffffffffffffffffffffff1603611874575f6040517f1e4fbdf700000000000000000000000000000000000000000000000000000000815260040161186b9190612004565b60405180910390fd5b61187d81611557565b50565b5f818310611897576118928284611ac7565b6118a2565b6118a18383611ac7565b5b905092915050565b5f819050919050565b5f8173ffffffffffffffffffffffffffffffffffffffff163b0361190e57806040517f4c9c8ce30000000000000000000000000000000000000000000000000000000081526004016119059190612004565b60405180910390fd5b8061193a7f360894a13ba1a3210667c828492db98dca3e2076cc3735a920a3ca505d382bbc5f1b6118aa565b5f015f6101000a81548173ffffffffffffffffffffffffffffffffffffffff021916908373ffffffffffffffffffffffffffffffffffffffff16021790555050565b60605f6119898484611adb565b90508080156119bf57505f61199c611aef565b11806119be57505f8473ffffffffffffffffffffffffffffffffffffffff163b115b5b156119d4576119cc611af6565b915050611a67565b8015611a1757836040517f9996b315000000000000000000000000000000000000000000000000000000008152600401611a0e9190612004565b60405180910390fd5b5f611a20611aef565b1115611a3357611a2e611b13565b611a65565b6040517fd6bda27500000000000000000000000000000000000000000000000000000000815260040160405180910390fd5b505b92915050565b5f341115611aa7576040517fb398979f00000000000000000000000000000000000000000000000000000000815260040160405180910390fd5b565b5f611ab261164f565b5f0160089054906101000a900460ff16905090565b5f825f528160205260405f20905092915050565b5f5f5f835160208501865af4905092915050565b5f3d905090565b606060405190503d81523d5f602083013e3d602001810160405290565b6040513d5f823e3d81fd5b5f604051905090565b5f5ffd5b5f5ffd5b5f67ffffffffffffffff82169050919050565b611b4b81611b2f565b8114611b55575f5ffd5b50565b5f81359050611b6681611b42565b92915050565b5f73ffffffffffffffffffffffffffffffffffffffff82169050919050565b5f611b9582611b6c565b9050919050565b611ba581611b8b565b8114611baf575f5ffd5b50565b5f81359050611bc081611b9c565b92915050565b5f5ffd5b5f5ffd5b5f5ffd5b5f5f83601f840112611be757611be6611bc6565b5b8235905067ffffffffffffffff811115611c0457611c03611bca565b5b602083019150836020820283011115611c2057611c1f611bce565b5b9250929050565b5f5f5f5f60608587031215611c3f57611c3e611b27565b5b5f611c4c87828801611b58565b9450506020611c5d87828801611bb2565b935050604085013567ffffffffffffffff811115611c7e57611c7d611b2b565b5b611c8a87828801611bd2565b925092505092959194509250565b5f819050919050565b611caa81611c98565b8114611cb4575f5ffd5b50565b5f81359050611cc581611ca1565b92915050565b5f5f60408385031215611ce157611ce0611b27565b5b5f611cee85828601611cb7565b9250506020611cff85828601611b58565b9150509250929050565b5f5f60408385031215611d1f57611d1e611b27565b5b5f611d2c85828601611b58565b9250506020611d3d85828601611bb2565b9150509250929050565b5f8115159050919050565b611d5b81611d47565b82525050565b5f602082019050611d745f830184611d52565b92915050565b5f5ffd5b5f601f19601f8301169050919050565b7f4e487b71000000000000000000000000000000000000000000000000000000005f52604160045260245ffd5b611dc482611d7e565b810181811067ffffffffffffffff82111715611de357611de2611d8e565b5b80604052505050565b5f611df5611b1e565b9050611e018282611dbb565b919050565b5f67ffffffffffffffff821115611e2057611e1f611d8e565b5b611e2982611d7e565b9050602081019050919050565b828183375f83830152505050565b5f611e56611e5184611e06565b611dec565b905082815260208101848484011115611e7257611e71611d7a565b5b611e7d848285611e36565b509392505050565b5f82601f830112611e9957611e98611bc6565b5b8135611ea9848260208601611e44565b91505092915050565b5f5f60408385031215611ec857611ec7611b27565b5b5f611ed585828601611bb2565b925050602083013567ffffffffffffffff811115611ef657611ef5611b2b565b5b611f0285828601611e85565b9150509250929050565b611f1581611c98565b82525050565b5f602082019050611f2e5f830184611f0c565b92915050565b611f3d81611b2f565b82525050565b5f602082019050611f565f830184611f34565b92915050565b5f819050919050565b611f6e81611f5c565b82525050565b5f602082019050611f875f830184611f65565b92915050565b611f9681611f5c565b8114611fa0575f5ffd5b50565b5f81359050611fb181611f8d565b92915050565b5f5f60408385031215611fcd57611fcc611b27565b5b5f611fda85828601611bb2565b9250506020611feb85828601611fa3565b9150509250929050565b611ffe81611b8b565b82525050565b5f6020820190506120175f830184611ff5565b92915050565b5f819050919050565b5f61204061203b61203684611b6c565b61201d565b611b6c565b9050919050565b5f61205182612026565b9050919050565b5f61206282612047565b9050919050565b61207281612058565b82525050565b5f60208201905061208b5f830184612069565b92915050565b5f5f5f5f5f608086880312156120aa576120a9611b27565b5b5f6120b788828901611b58565b95505060206120c888828901611bb2565b94505060406120d988828901611fa3565b935050606086013567ffffffffffffffff8111156120fa576120f9611b2b565b5b61210688828901611bd2565b92509250509295509295909350565b5f6020828403121561212a57612129611b27565b5b5f61213784828501611fa3565b91505092915050565b5f81519050919050565b5f82825260208201905092915050565b8281835e5f83830152505050565b5f61217282612140565b61217c818561214a565b935061218c81856020860161215a565b61219581611d7e565b840191505092915050565b5f6020820190508181035f8301526121b88184612168565b905092915050565b5f602082840312156121d5576121d4611b27565b5b5f6121e284828501611bb2565b91505092915050565b5f8160601b9050919050565b5f612201826121eb565b9050919050565b5f612212826121f7565b9050919050565b61222a61222582611b8b565b612208565b82525050565b5f819050919050565b61224a61224582611f5c565b612230565b82525050565b5f8160c01b9050919050565b5f61226682612250565b9050919050565b61227e61227982611b2f565b61225c565b82525050565b5f61228f8286612219565b60148201915061229f8285612239565b6020820191506122af828461226d565b600882019150819050949350505050565b5f6040820190506122d35f830185611ff5565b6122e06020830184611f65565b9392505050565b6122f081611d47565b81146122fa575f5ffd5b50565b5f8151905061230b816122e7565b92915050565b5f6020828403121561232657612325611b27565b5b5f612333848285016122fd565b91505092915050565b5f819050919050565b5f61235f61235a6123558461233c565b61201d565b611b2f565b9050919050565b61236f81612345565b82525050565b5f6020820190506123885f830184612366565b92915050565b5f8151905061239c81611ca1565b92915050565b5f602082840312156123b7576123b6611b27565b5b5f6123c48482850161238e565b91505092915050565b7f4e487b71000000000000000000000000000000000000000000000000000000005f52603260045260245ffdfea264697066735822122071710ea2a6929061871844a23acf759ed802ce78cafbc61630701a84e510fdb864736f6c634300081e0033","linkReferences":{}},"methodIdentifiers":{"UPGRADE_INTERFACE_VERSION()":"ad3cb1cc","claim(uint64,address,uint256,bytes32[])":"a2f94bd3","claimV2(uint64,address,bytes32[])":"16e2d4b2","i_rewardAmount()":"8750cab0","i_token()":"9608b232","initialize(address)":"c4d66de8","isClaimed(uint64,address)":"3d00e43b","isClaimedV2(uint64,address)":"4f4c18c7","owner()":"8da5cb5b","proxiableUUID()":"52d1902d","renounceOwnership()":"715018a6","rescue(address,uint256)":"7a4e4ecf","rewardAmount()":"f7b2a7be","s_merkleRoot()":"ae82de5f","s_round()":"53f1906e","setRewardAmount(uint256)":"a8a65a78","setRoot(bytes32,uint64)":"36f136ef","transferOwnership(address)":"f2fde38b","upgradeToAndCall(address,bytes)":"4f1ef286","version()":"54fd4d50"},"storageLayout":{"storage":[{"astId":44501,"contract":"src/MerkleDistributor/MerkleDistributorV2.sol:MerkleDistributorV2","label":"s_merkleRoot","offset":0,"slot":"0","type":"t_bytes32"},{"astId":44504,"contract":"src/MerkleDistributor/MerkleDistributorV2.sol:MerkleDistributorV2","label":"s_round","offset":0,"slot":"1","type":"t_uint64"},{"astId":44511,"contract":"src/MerkleDistributor/MerkleDistributorV2.sol:MerkleDistributorV2","label":"claimed","offset":0,"slot":"2","type":"t_mapping(t_uint64,t_mapping(t_address,t_bool))"},{"astId":44516,"contract":"src/MerkleDistributor/MerkleDistributorV2.sol:MerkleDistributorV2","label":"__gap","offset":0,"slot":"3","type":"t_array(t_uint256)50_storage"},{"astId":44776,"contract":"src/MerkleDistributor/MerkleDistributorV2.sol:MerkleDistributorV2","label":"s_rewardAmount","offset":0,"slot":"53","type":"t_uint256"},{"astId":44782,"contract":"src/MerkleDistributor/MerkleDistributorV2.sol:MerkleDistributorV2","label":"s_claimedV2","offset":0,"slot":"54","type":"t_mapping(t_uint64,t_mapping(t_address,t_bool))"}],"types":{"t_address":{"encoding":"inplace","label":"address","numberOfBytes":"20"},"t_array(t_uint256)50_storage":{"encoding":"inplace","label":"uint256[50]","numberOfBytes":"1600","base":"t_uint256"},"t_bool":{"encoding":"inplace","label":"bool","numberOfBytes":"1"},"t_bytes32":{"encoding":"inplace","label":"bytes32","numberOfBytes":"32"},"t_mapping(t_address,t_bool)":{"encoding":"mapping","key":"t_address","label":"mapping(address => bool)","numberOfBytes":"32","value":"t_bool"},"t_mapping(t_uint64,t_mapping(t_address,t_bool))":{"encoding":"mapping","key":"t_uint64","label":"mapping(uint64 => mapping(address => bool))","numberOfBytes":"32","value":"t_mapping(t_address,t_bool)"},"t_uint256":{"encoding":"inplace","label":"uint256","numberOfBytes":"32"},"t_uint64":{"encoding":"inplace","label":"uint64","numberOfBytes":"8"}}},"id":40}