{"abi":[{"type":"constructor","inputs":[{"name":"_token","type":"address","internalType":"contract IERC20"},{"name":"_rewardAmount","type":"uint256","internalType":"uint256"}],"stateMutability":"nonpayable"},{"type":"function","name":"UPGRADE_INTERFACE_VERSION","inputs":[],"outputs":[{"name":"","type":"string","internalType":"string"}],"stateMutability":"view"},{"type":"function","name":"claim","inputs":[{"name":"r","type":"uint64","internalType":"uint64"},{"name":"account","type":"address","internalType":"address"},{"name":"amount","type":"uint256","internalType":"uint256"},{"name":"merkleProof","type":"bytes32[]","internalType":"bytes32[]"}],"outputs":[],"stateMutability":"nonpayable"},{"type":"function","name":"i_rewardAmount","inputs":[],"outputs":[{"name":"","type":"uint256","internalType":"uint256"}],"stateMutability":"view"},{"type":"function","name":"i_token","inputs":[],"outputs":[{"name":"","type":"address","internalType":"contract IERC20"}],"stateMutability":"view"},{"type":"function","name":"initialize","inputs":[{"name":"initialOwner","type":"address","internalType":"address"}],"outputs":[],"stateMutability":"nonpayable"},{"type":"function","name":"isClaimed","inputs":[{"name":"r","type":"uint64","internalType":"uint64"},{"name":"a","type":"address","internalType":"address"}],"outputs":[{"name":"","type":"bool","internalType":"bool"}],"stateMutability":"view"},{"type":"function","name":"owner","inputs":[],"outputs":[{"name":"","type":"address","internalType":"address"}],"stateMutability":"view"},{"type":"function","name":"proxiableUUID","inputs":[],"outputs":[{"name":"","type":"bytes32","internalType":"bytes32"}],"stateMutability":"view"},{"type":"function","name":"renounceOwnership","inputs":[],"outputs":[],"stateMutability":"nonpayable"},{"type":"function","name":"rescue","inputs":[{"name":"to","type":"address","internalType":"address"},{"name":"amount","type":"uint256","internalType":"uint256"}],"outputs":[],"stateMutability":"nonpayable"},{"type":"function","name":"s_merkleRoot","inputs":[],"outputs":[{"name":"","type":"bytes32","internalType":"bytes32"}],"stateMutability":"view"},{"type":"function","name":"s_round","inputs":[],"outputs":[{"name":"","type":"uint64","internalType":"uint64"}],"stateMutability":"view"},{"type":"function","name":"setRoot","inputs":[{"name":"newRoot","type":"bytes32","internalType":"bytes32"},{"name":"newRound","type":"uint64","internalType":"uint64"}],"outputs":[],"stateMutability":"nonpayable"},{"type":"function","name":"transferOwnership","inputs":[{"name":"newOwner","type":"address","internalType":"address"}],"outputs":[],"stateMutability":"nonpayable"},{"type":"function","name":"upgradeToAndCall","inputs":[{"name":"newImplementation","type":"address","internalType":"address"},{"name":"data","type":"bytes","internalType":"bytes"}],"outputs":[],"stateMutability":"payable"},{"type":"function","name":"version","inputs":[],"outputs":[{"name":"","type":"uint256","internalType":"uint256"}],"stateMutability":"pure"},{"type":"event","name":"Claimed","inputs":[{"name":"round","type":"uint64","indexed":true,"internalType":"uint64"},{"name":"account","type":"address","indexed":true,"internalType":"address"},{"name":"amount","type":"uint256","indexed":false,"internalType":"uint256"}],"anonymous":false},{"type":"event","name":"Initialized","inputs":[{"name":"version","type":"uint64","indexed":false,"internalType":"uint64"}],"anonymous":false},{"type":"event","name":"OwnershipTransferred","inputs":[{"name":"previousOwner","type":"address","indexed":true,"internalType":"address"},{"name":"newOwner","type":"address","indexed":true,"internalType":"address"}],"anonymous":false},{"type":"event","name":"RootUpdated","inputs":[{"name":"newRoot","type":"bytes32","indexed":true,"internalType":"bytes32"},{"name":"newRound","type":"uint64","indexed":true,"internalType":"uint64"}],"anonymous":false},{"type":"event","name":"Upgraded","inputs":[{"name":"implementation","type":"address","indexed":true,"internalType":"address"}],"anonymous":false},{"type":"error","name":"AddressEmptyCode","inputs":[{"name":"target","type":"address","internalType":"address"}]},{"type":"error","name":"ERC1967InvalidImplementation","inputs":[{"name":"implementation","type":"address","internalType":"address"}]},{"type":"error","name":"ERC1967NonPayable","inputs":[]},{"type":"error","name":"FailedCall","inputs":[]},{"type":"error","name":"InvalidInitialization","inputs":[]},{"type":"error","name":"MerkleDistributor__AlreadyClaimed","inputs":[]},{"type":"error","name":"MerkleDistributor__BadProof","inputs":[]},{"type":"error","name":"MerkleDistributor__RootZero","inputs":[]},{"type":"error","name":"MerkleDistributor__RoundBackwards","inputs":[]},{"type":"error","name":"MerkleDistributor__TransferFailed","inputs":[]},{"type":"error","name":"MerkleDistributor__WrongAmount","inputs":[]},{"type":"error","name":"MerkleDistributor__WrongRound","inputs":[]},{"type":"error","name":"NotInitializing","inputs":[]},{"type":"error","name":"OwnableInvalidOwner","inputs":[{"name":"owner","type":"address","internalType":"address"}]},{"type":"error","name":"OwnableUnauthorizedAccount","inputs":[{"name":"account","type":"address","internalType":"address"}]},{"type":"error","name":"UUPSUnauthorizedCallContext","inputs":[]},{"type":"error","name":"UUPSUnsupportedProxiableUUID","inputs":[{"name":"slot","type":"bytes32","internalType":"bytes32"}]}],"bytecode":{"object":"0x60e06040523073ffffffffffffffffffffffffffffffffffffffff1660809073ffffffffffffffffffffffffffffffffffffffff16815250348015610042575f5ffd5b506040516121a93803806121a983398181016040528101906100649190610297565b6100726100b560201b60201c565b8173ffffffffffffffffffffffffffffffffffffffff1660a08173ffffffffffffffffffffffffffffffffffffffff16815250508060c081815250505050610310565b5f6100c46101b360201b60201c565b9050805f0160089054906101000a900460ff161561010e576040517ff92ee8a900000000000000000000000000000000000000000000000000000000815260040160405180910390fd5b67ffffffffffffffff8016815f015f9054906101000a900467ffffffffffffffff1667ffffffffffffffff16146101b05767ffffffffffffffff815f015f6101000a81548167ffffffffffffffff021916908367ffffffffffffffff1602179055507fc7f505b2f371ae2175ee4913f4499e1f2633a7b5936321eed1cdaeb6115181d267ffffffffffffffff6040516101a791906102f7565b60405180910390a15b50565b5f5f6101c36101cc60201b60201c565b90508091505090565b5f7ff0c57e16840df040f15088dc2f81fe391c3923bec73e23a9662efc9c229c6a005f1b905090565b5f5ffd5b5f73ffffffffffffffffffffffffffffffffffffffff82169050919050565b5f610222826101f9565b9050919050565b5f61023382610218565b9050919050565b61024381610229565b811461024d575f5ffd5b50565b5f8151905061025e8161023a565b92915050565b5f819050919050565b61027681610264565b8114610280575f5ffd5b50565b5f815190506102918161026d565b92915050565b5f5f604083850312156102ad576102ac6101f5565b5b5f6102ba85828601610250565b92505060206102cb85828601610283565b9150509250929050565b5f67ffffffffffffffff82169050919050565b6102f1816102d5565b82525050565b5f60208201905061030a5f8301846102e8565b92915050565b60805160a05160c051611e4c61035d5f395f8181610665015261074401525f8181610590015281816106be015261096901525f8181610d6501528181610dba0152610f740152611e4c5ff3fe6080604052600436106100f2575f3560e01c80638750cab011610089578063ad3cb1cc11610058578063ad3cb1cc146102d8578063ae82de5f14610302578063c4d66de81461032c578063f2fde38b14610354576100f2565b80638750cab0146102325780638da5cb5b1461025c5780639608b23214610286578063a2f94bd3146102b0576100f2565b806353f1906e116100c557806353f1906e146101a057806354fd4d50146101ca578063715018a6146101f45780637a4e4ecf1461020a576100f2565b806336f136ef146100f65780633d00e43b1461011e5780634f1ef2861461015a57806352d1902d14610176575b5f5ffd5b348015610101575f5ffd5b5061011c60048036038101906101179190611657565b61037c565b005b348015610129575f5ffd5b50610144600480360381019061013f91906116ef565b61048c565b6040516101519190611747565b60405180910390f35b610174600480360381019061016f919061189c565b610502565b005b348015610181575f5ffd5b5061018a610521565b6040516101979190611905565b60405180910390f35b3480156101ab575f5ffd5b506101b4610552565b6040516101c1919061192d565b60405180910390f35b3480156101d5575f5ffd5b506101de61056b565b6040516101eb919061195e565b60405180910390f35b3480156101ff575f5ffd5b50610208610573565b005b348015610215575f5ffd5b50610230600480360381019061022b91906119a1565b610586565b005b34801561023d575f5ffd5b50610246610663565b604051610253919061195e565b60405180910390f35b348015610267575f5ffd5b50610270610687565b60405161027d91906119ee565b60405180910390f35b348015610291575f5ffd5b5061029a6106bc565b6040516102a79190611a62565b60405180910390f35b3480156102bb575f5ffd5b506102d660048036038101906102d19190611ad8565b6106e0565b005b3480156102e3575f5ffd5b506102ec610a99565b6040516102f99190611bbc565b60405180910390f35b34801561030d575f5ffd5b50610316610ad2565b6040516103239190611905565b60405180910390f35b348015610337575f5ffd5b50610352600480360381019061034d9190611bdc565b610ad7565b005b34801561035f575f5ffd5b5061037a60048036038101906103759190611bdc565b610c58565b005b610384610cdc565b5f5f1b82036103bf576040517f6bc7c09500000000000000000000000000000000000000000000000000000000815260040160405180910390fd5b60015f9054906101000a900467ffffffffffffffff1667ffffffffffffffff168167ffffffffffffffff161015610422576040517f4a0f36fa00000000000000000000000000000000000000000000000000000000815260040160405180910390fd5b815f819055508060015f6101000a81548167ffffffffffffffff021916908367ffffffffffffffff1602179055508067ffffffffffffffff16827f7c0fdbdb9bee7dc4ba5d3a1a589ec1d82c655f7242a368a57cc625bb7654261360405160405180910390a35050565b5f60025f8467ffffffffffffffff1667ffffffffffffffff1681526020019081526020015f205f8373ffffffffffffffffffffffffffffffffffffffff1673ffffffffffffffffffffffffffffffffffffffff1681526020019081526020015f205f9054906101000a900460ff16905092915050565b61050a610d63565b61051382610e49565b61051d8282610e54565b5050565b5f61052a610f72565b7f360894a13ba1a3210667c828492db98dca3e2076cc3735a920a3ca505d382bbc5f1b905090565b60015f9054906101000a900467ffffffffffffffff1681565b5f6001905090565b61057b610cdc565b6105845f610ff9565b565b61058e610cdc565b7f000000000000000000000000000000000000000000000000000000000000000073ffffffffffffffffffffffffffffffffffffffff1663a9059cbb83836040518363ffffffff1660e01b81526004016105e9929190611c07565b6020604051808303815f875af1158015610605573d5f5f3e3d5ffd5b505050506040513d601f19601f820116820180604052508101906106299190611c58565b61065f576040517f8f8dfe4e00000000000000000000000000000000000000000000000000000000815260040160405180910390fd5b5050565b7f000000000000000000000000000000000000000000000000000000000000000081565b5f5f6106916110ca565b9050805f015f9054906101000a900473ffffffffffffffffffffffffffffffffffffffff1691505090565b7f000000000000000000000000000000000000000000000000000000000000000081565b60015f9054906101000a900467ffffffffffffffff1667ffffffffffffffff168567ffffffffffffffff1614610742576040517f956060cb00000000000000000000000000000000000000000000000000000000815260040160405180910390fd5b7f0000000000000000000000000000000000000000000000000000000000000000831461079b576040517f6517b4ce00000000000000000000000000000000000000000000000000000000815260040160405180910390fd5b60025f8667ffffffffffffffff1667ffffffffffffffff1681526020019081526020015f205f8573ffffffffffffffffffffffffffffffffffffffff1673ffffffffffffffffffffffffffffffffffffffff1681526020019081526020015f205f9054906101000a900460ff161561083f576040517f493ab40800000000000000000000000000000000000000000000000000000000815260040160405180910390fd5b5f84848760405160200161085593929190611d1c565b6040516020818303038152906040528051906020012090506108b98383808060200260200160405190810160405280939291908181526020018383602002808284375f81840152601f19601f820116905080830192505050505050505f54836110f1565b6108ef576040517f5ab5e77700000000000000000000000000000000000000000000000000000000815260040160405180910390fd5b600160025f8867ffffffffffffffff1667ffffffffffffffff1681526020019081526020015f205f8773ffffffffffffffffffffffffffffffffffffffff1673ffffffffffffffffffffffffffffffffffffffff1681526020019081526020015f205f6101000a81548160ff0219169083151502179055507f000000000000000000000000000000000000000000000000000000000000000073ffffffffffffffffffffffffffffffffffffffff1663a9059cbb86866040518363ffffffff1660e01b81526004016109c2929190611c07565b6020604051808303815f875af11580156109de573d5f5f3e3d5ffd5b505050506040513d601f19601f82011682018060405250810190610a029190611c58565b610a38576040517f8f8dfe4e00000000000000000000000000000000000000000000000000000000815260040160405180910390fd5b8473ffffffffffffffffffffffffffffffffffffffff168667ffffffffffffffff167ff20fc6923b8057dd0c3b606483fcaa038229bb36ebc35a0040e3eaa39cf97b1786604051610a89919061195e565b60405180910390a3505050505050565b6040518060400160405280600581526020017f352e302e3000000000000000000000000000000000000000000000000000000081525081565b5f5481565b5f610ae0611107565b90505f815f0160089054906101000a900460ff161590505f825f015f9054906101000a900467ffffffffffffffff1690505f5f8267ffffffffffffffff16148015610b285750825b90505f60018367ffffffffffffffff16148015610b5b57505f3073ffffffffffffffffffffffffffffffffffffffff163b145b905081158015610b69575080155b15610ba0576040517ff92ee8a900000000000000000000000000000000000000000000000000000000815260040160405180910390fd5b6001855f015f6101000a81548167ffffffffffffffff021916908367ffffffffffffffff1602179055508315610bed576001855f0160086101000a81548160ff0219169083151502179055505b610bf68661111a565b8315610c50575f855f0160086101000a81548160ff0219169083151502179055507fc7f505b2f371ae2175ee4913f4499e1f2633a7b5936321eed1cdaeb6115181d26001604051610c479190611d91565b60405180910390a15b505050505050565b610c60610cdc565b5f73ffffffffffffffffffffffffffffffffffffffff168173ffffffffffffffffffffffffffffffffffffffff1603610cd0575f6040517f1e4fbdf7000000000000000000000000000000000000000000000000000000008152600401610cc791906119ee565b60405180910390fd5b610cd981610ff9565b50565b610ce461112e565b73ffffffffffffffffffffffffffffffffffffffff16610d02610687565b73ffffffffffffffffffffffffffffffffffffffff1614610d6157610d2561112e565b6040517f118cdaa7000000000000000000000000000000000000000000000000000000008152600401610d5891906119ee565b60405180910390fd5b565b7f000000000000000000000000000000000000000000000000000000000000000073ffffffffffffffffffffffffffffffffffffffff163073ffffffffffffffffffffffffffffffffffffffff161480610e1057507f000000000000000000000000000000000000000000000000000000000000000073ffffffffffffffffffffffffffffffffffffffff16610df7611135565b73ffffffffffffffffffffffffffffffffffffffff1614155b15610e47576040517fe07c8dba00000000000000000000000000000000000000000000000000000000815260040160405180910390fd5b565b610e51610cdc565b50565b8173ffffffffffffffffffffffffffffffffffffffff166352d1902d6040518163ffffffff1660e01b8152600401602060405180830381865afa925050508015610ebc57506040513d601f19601f82011682018060405250810190610eb99190611dbe565b60015b610efd57816040517f4c9c8ce3000000000000000000000000000000000000000000000000000000008152600401610ef491906119ee565b60405180910390fd5b7f360894a13ba1a3210667c828492db98dca3e2076cc3735a920a3ca505d382bbc5f1b8114610f6357806040517faa1d49a4000000000000000000000000000000000000000000000000000000008152600401610f5a9190611905565b60405180910390fd5b610f6d8383611188565b505050565b7f000000000000000000000000000000000000000000000000000000000000000073ffffffffffffffffffffffffffffffffffffffff163073ffffffffffffffffffffffffffffffffffffffff1614610ff7576040517fe07c8dba00000000000000000000000000000000000000000000000000000000815260040160405180910390fd5b565b5f6110026110ca565b90505f815f015f9054906101000a900473ffffffffffffffffffffffffffffffffffffffff16905082825f015f6101000a81548173ffffffffffffffffffffffffffffffffffffffff021916908373ffffffffffffffffffffffffffffffffffffffff1602179055508273ffffffffffffffffffffffffffffffffffffffff168173ffffffffffffffffffffffffffffffffffffffff167f8be0079c531659141344cd1fd0a4f28419497f9722a3daafe3b4186f6b6457e060405160405180910390a3505050565b5f7f9016d09d72d40fdae2fd8ceac6b6234c7706214fd39c1cd1e609a0528c199300905090565b5f826110fd85846111fa565b1490509392505050565b5f5f61111161124b565b90508091505090565b611122611274565b61112b816112b4565b50565b5f33905090565b5f6111617f360894a13ba1a3210667c828492db98dca3e2076cc3735a920a3ca505d382bbc5f1b611338565b5f015f9054906101000a900473ffffffffffffffffffffffffffffffffffffffff16905090565b61119182611341565b8173ffffffffffffffffffffffffffffffffffffffff167fbc7cd75a20ee27fd9adebab32041f755214dbc6bffa90cc0225b39da2e5c2d3b60405160405180910390a25f815111156111ed576111e7828261140a565b506111f6565b6111f56114fb565b5b5050565b5f5f8290505f5f90505b8451811015611240576112318286838151811061122457611223611de9565b5b6020026020010151611537565b91508080600101915050611204565b508091505092915050565b5f7ff0c57e16840df040f15088dc2f81fe391c3923bec73e23a9662efc9c229c6a005f1b905090565b61127c611561565b6112b2576040517fd7e6bcf800000000000000000000000000000000000000000000000000000000815260040160405180910390fd5b565b6112bc611274565b5f73ffffffffffffffffffffffffffffffffffffffff168173ffffffffffffffffffffffffffffffffffffffff160361132c575f6040517f1e4fbdf700000000000000000000000000000000000000000000000000000000815260040161132391906119ee565b60405180910390fd5b61133581610ff9565b50565b5f819050919050565b5f8173ffffffffffffffffffffffffffffffffffffffff163b0361139c57806040517f4c9c8ce300000000000000000000000000000000000000000000000000000000815260040161139391906119ee565b60405180910390fd5b806113c87f360894a13ba1a3210667c828492db98dca3e2076cc3735a920a3ca505d382bbc5f1b611338565b5f015f6101000a81548173ffffffffffffffffffffffffffffffffffffffff021916908373ffffffffffffffffffffffffffffffffffffffff16021790555050565b60605f611417848461157f565b905080801561144d57505f61142a611593565b118061144c57505f8473ffffffffffffffffffffffffffffffffffffffff163b115b5b156114625761145a61159a565b9150506114f5565b80156114a557836040517f9996b31500000000000000000000000000000000000000000000000000000000815260040161149c91906119ee565b60405180910390fd5b5f6114ae611593565b11156114c1576114bc6115b7565b6114f3565b6040517fd6bda27500000000000000000000000000000000000000000000000000000000815260040160405180910390fd5b505b92915050565b5f341115611535576040517fb398979f00000000000000000000000000000000000000000000000000000000815260040160405180910390fd5b565b5f81831061154e5761154982846115c2565b611559565b61155883836115c2565b5b905092915050565b5f61156a611107565b5f0160089054906101000a900460ff16905090565b5f5f5f835160208501865af4905092915050565b5f3d905090565b606060405190503d81523d5f602083013e3d602001810160405290565b6040513d5f823e3d81fd5b5f825f528160205260405f20905092915050565b5f604051905090565b5f5ffd5b5f5ffd5b5f819050919050565b6115f9816115e7565b8114611603575f5ffd5b50565b5f81359050611614816115f0565b92915050565b5f67ffffffffffffffff82169050919050565b6116368161161a565b8114611640575f5ffd5b50565b5f813590506116518161162d565b92915050565b5f5f6040838503121561166d5761166c6115df565b5b5f61167a85828601611606565b925050602061168b85828601611643565b9150509250929050565b5f73ffffffffffffffffffffffffffffffffffffffff82169050919050565b5f6116be82611695565b9050919050565b6116ce816116b4565b81146116d8575f5ffd5b50565b5f813590506116e9816116c5565b92915050565b5f5f60408385031215611705576117046115df565b5b5f61171285828601611643565b9250506020611723858286016116db565b9150509250929050565b5f8115159050919050565b6117418161172d565b82525050565b5f60208201905061175a5f830184611738565b92915050565b5f5ffd5b5f5ffd5b5f601f19601f8301169050919050565b7f4e487b71000000000000000000000000000000000000000000000000000000005f52604160045260245ffd5b6117ae82611768565b810181811067ffffffffffffffff821117156117cd576117cc611778565b5b80604052505050565b5f6117df6115d6565b90506117eb82826117a5565b919050565b5f67ffffffffffffffff82111561180a57611809611778565b5b61181382611768565b9050602081019050919050565b828183375f83830152505050565b5f61184061183b846117f0565b6117d6565b90508281526020810184848401111561185c5761185b611764565b5b611867848285611820565b509392505050565b5f82601f83011261188357611882611760565b5b813561189384826020860161182e565b91505092915050565b5f5f604083850312156118b2576118b16115df565b5b5f6118bf858286016116db565b925050602083013567ffffffffffffffff8111156118e0576118df6115e3565b5b6118ec8582860161186f565b9150509250929050565b6118ff816115e7565b82525050565b5f6020820190506119185f8301846118f6565b92915050565b6119278161161a565b82525050565b5f6020820190506119405f83018461191e565b92915050565b5f819050919050565b61195881611946565b82525050565b5f6020820190506119715f83018461194f565b92915050565b61198081611946565b811461198a575f5ffd5b50565b5f8135905061199b81611977565b92915050565b5f5f604083850312156119b7576119b66115df565b5b5f6119c4858286016116db565b92505060206119d58582860161198d565b9150509250929050565b6119e8816116b4565b82525050565b5f602082019050611a015f8301846119df565b92915050565b5f819050919050565b5f611a2a611a25611a2084611695565b611a07565b611695565b9050919050565b5f611a3b82611a10565b9050919050565b5f611a4c82611a31565b9050919050565b611a5c81611a42565b82525050565b5f602082019050611a755f830184611a53565b92915050565b5f5ffd5b5f5ffd5b5f5f83601f840112611a9857611a97611760565b5b8235905067ffffffffffffffff811115611ab557611ab4611a7b565b5b602083019150836020820283011115611ad157611ad0611a7f565b5b9250929050565b5f5f5f5f5f60808688031215611af157611af06115df565b5b5f611afe88828901611643565b9550506020611b0f888289016116db565b9450506040611b208882890161198d565b935050606086013567ffffffffffffffff811115611b4157611b406115e3565b5b611b4d88828901611a83565b92509250509295509295909350565b5f81519050919050565b5f82825260208201905092915050565b8281835e5f83830152505050565b5f611b8e82611b5c565b611b988185611b66565b9350611ba8818560208601611b76565b611bb181611768565b840191505092915050565b5f6020820190508181035f830152611bd48184611b84565b905092915050565b5f60208284031215611bf157611bf06115df565b5b5f611bfe848285016116db565b91505092915050565b5f604082019050611c1a5f8301856119df565b611c27602083018461194f565b9392505050565b611c378161172d565b8114611c41575f5ffd5b50565b5f81519050611c5281611c2e565b92915050565b5f60208284031215611c6d57611c6c6115df565b5b5f611c7a84828501611c44565b91505092915050565b5f8160601b9050919050565b5f611c9982611c83565b9050919050565b5f611caa82611c8f565b9050919050565b611cc2611cbd826116b4565b611ca0565b82525050565b5f819050919050565b611ce2611cdd82611946565b611cc8565b82525050565b5f8160c01b9050919050565b5f611cfe82611ce8565b9050919050565b611d16611d118261161a565b611cf4565b82525050565b5f611d278286611cb1565b601482019150611d378285611cd1565b602082019150611d478284611d05565b600882019150819050949350505050565b5f819050919050565b5f611d7b611d76611d7184611d58565b611a07565b61161a565b9050919050565b611d8b81611d61565b82525050565b5f602082019050611da45f830184611d82565b92915050565b5f81519050611db8816115f0565b92915050565b5f60208284031215611dd357611dd26115df565b5b5f611de084828501611daa565b91505092915050565b7f4e487b71000000000000000000000000000000000000000000000000000000005f52603260045260245ffdfea2646970667358221220d454e6cc82120034e495af213cd2a09adcf8f6cfb7413427ef12550c2824f04e64736f6c634300081e0033","linkReferences":{}},"methodIdentifiers":{"UPGRADE_INTERFACE_VERSION()":"ad3cb1cc","claim(uint64,address,uint256,bytes32[])":"a2f94bd3","i_rewardAmount()":"8750cab0","i_token()":"9608b232","initialize(address)":"c4d66de8","isClaimed(uint64,address)":"3d00e43b","owner()":"8da5cb5b","proxiableUUID()":"52d1902d","renounceOwnership()":"715018a6","rescue(address,uint256)":"7a4e4ecf","s_merkleRoot()":"ae82de5f","s_round()":"53f1906e","setRoot(bytes32,uint64)":"36f136ef","transferOwnership(address)":"f2fde38b","upgradeToAndCall(address,bytes)":"4f1ef286","version()":"54fd4d50"},"storageLayout":{"storage":[{"astId":50068,"contract":"src/MerkleDistributor/MerkleDistributorV1.sol:MerkleDistributorV1","label":"s_merkleRoot","offset":0,"slot":"0","type":"t_bytes32"},{"astId":50071,"contract":"src/MerkleDistributor/MerkleDistributorV1.sol:MerkleDistributorV1","label":"s_round","offset":0,"slot":"1","type":"t_uint64"},{"astId":50078,"contract":"src/MerkleDistributor/MerkleDistributorV1.sol:MerkleDistributorV1","label":"claimed","offset":0,"slot":"2","type":"t_mapping(t_uint64,t_mapping(t_address,t_bool))"},{"astId":50083,"contract":"src/MerkleDistributor/MerkleDistributorV1.sol:MerkleDistributorV1","label":"__gap","offset":0,"slot":"3","type":"t_array(t_uint256)50_storage"}],"types":{"t_address":{"encoding":"inplace","label":"address","numberOfBytes":"20"},"t_array(t_uint256)50_storage":{"encoding":"inplace","label":"uint256[50]","numberOfBytes":"1600","base":"t_uint256"},"t_bool":{"encoding":"inplace","label":"bool","numberOfBytes":"1"},"t_bytes32":{"encoding":"inplace","label":"bytes32","numberOfBytes":"32"},"t_mapping(t_address,t_bool)":{"encoding":"mapping","key":"t_address","label":"mapping(address => bool)","numberOfBytes":"32","value":"t_bool"},"t_mapping(t_uint64,t_mapping(t_address,t_bool))":{"encoding":"mapping","key":"t_uint64","label":"mapping(uint64 => mapping(address => bool))","numberOfBytes":"32","value":"t_mapping(t_address,t_bool)"},"t_uint256":{"encoding":"inplace","label":"uint256","numberOfBytes":"32"},"t_uint64":{"encoding":"inplace","label":"uint64","numberOfBytes":"8"}}},"id":72}