{"abi":[{"type":"constructor","inputs":[{"name":"maxSupply","type":"uint256","internalType":"uint256"},{"name":"mintPriceWei","type":"uint256","internalType":"uint256"}],"stateMutability":"nonpayable"},{"type":"function","name":"MINT_INTERVAL","inputs":[],"outputs":[{"name":"","type":"uint256","internalType":"uint256"}],"stateMutability":"view"},{"type":"function","name":"UPGRADE_INTERFACE_VERSION","inputs":[],"outputs":[{"name":"","type":"string","internalType":"string"}],"stateMutability":"view"},{"type":"function","name":"approve","inputs":[{"name":"to","type":"address","internalType":"address"},{"name":"tokenId","type":"uint256","internalType":"uint256"}],"outputs":[],"stateMutability":"nonpayable"},{"type":"function","name":"balanceOf","inputs":[{"name":"owner","type":"address","internalType":"address"}],"outputs":[{"name":"","type":"uint256","internalType":"uint256"}],"stateMutability":"view"},{"type":"function","name":"deleteDefaultRoyalty","inputs":[],"outputs":[],"stateMutability":"nonpayable"},{"type":"function","name":"getApproved","inputs":[{"name":"tokenId","type":"uint256","internalType":"uint256"}],"outputs":[{"name":"","type":"address","internalType":"address"}],"stateMutability":"view"},{"type":"function","name":"i_maxSupply","inputs":[],"outputs":[{"name":"","type":"uint256","internalType":"uint256"}],"stateMutability":"view"},{"type":"function","name":"i_mintPrice","inputs":[],"outputs":[{"name":"","type":"uint256","internalType":"uint256"}],"stateMutability":"view"},{"type":"function","name":"initialize","inputs":[{"name":"initialOwner","type":"address","internalType":"address"},{"name":"baseURI","type":"string","internalType":"string"},{"name":"royaltyReceiver","type":"address","internalType":"address"},{"name":"royaltyBps","type":"uint96","internalType":"uint96"}],"outputs":[],"stateMutability":"nonpayable"},{"type":"function","name":"isApprovedForAll","inputs":[{"name":"owner","type":"address","internalType":"address"},{"name":"operator","type":"address","internalType":"address"}],"outputs":[{"name":"","type":"bool","internalType":"bool"}],"stateMutability":"view"},{"type":"function","name":"lastMint","inputs":[{"name":"","type":"address","internalType":"address"}],"outputs":[{"name":"","type":"uint256","internalType":"uint256"}],"stateMutability":"view"},{"type":"function","name":"mint","inputs":[{"name":"quantity","type":"uint256","internalType":"uint256"}],"outputs":[],"stateMutability":"payable"},{"type":"function","name":"name","inputs":[],"outputs":[{"name":"","type":"string","internalType":"string"}],"stateMutability":"view"},{"type":"function","name":"owner","inputs":[],"outputs":[{"name":"","type":"address","internalType":"address"}],"stateMutability":"view"},{"type":"function","name":"ownerOf","inputs":[{"name":"tokenId","type":"uint256","internalType":"uint256"}],"outputs":[{"name":"","type":"address","internalType":"address"}],"stateMutability":"view"},{"type":"function","name":"paused","inputs":[],"outputs":[{"name":"","type":"bool","internalType":"bool"}],"stateMutability":"view"},{"type":"function","name":"proxiableUUID","inputs":[],"outputs":[{"name":"","type":"bytes32","internalType":"bytes32"}],"stateMutability":"view"},{"type":"function","name":"renounceOwnership","inputs":[],"outputs":[],"stateMutability":"nonpayable"},{"type":"function","name":"royaltyInfo","inputs":[{"name":"tokenId","type":"uint256","internalType":"uint256"},{"name":"salePrice","type":"uint256","internalType":"uint256"}],"outputs":[{"name":"receiver","type":"address","internalType":"address"},{"name":"amount","type":"uint256","internalType":"uint256"}],"stateMutability":"view"},{"type":"function","name":"safeTransferFrom","inputs":[{"name":"from","type":"address","internalType":"address"},{"name":"to","type":"address","internalType":"address"},{"name":"tokenId","type":"uint256","internalType":"uint256"}],"outputs":[],"stateMutability":"nonpayable"},{"type":"function","name":"safeTransferFrom","inputs":[{"name":"from","type":"address","internalType":"address"},{"name":"to","type":"address","internalType":"address"},{"name":"tokenId","type":"uint256","internalType":"uint256"},{"name":"data","type":"bytes","internalType":"bytes"}],"outputs":[],"stateMutability":"nonpayable"},{"type":"function","name":"setApprovalForAll","inputs":[{"name":"operator","type":"address","internalType":"address"},{"name":"approved","type":"bool","internalType":"bool"}],"outputs":[],"stateMutability":"nonpayable"},{"type":"function","name":"setBaseURI","inputs":[{"name":"newBaseURI","type":"string","internalType":"string"}],"outputs":[],"stateMutability":"nonpayable"},{"type":"function","name":"setDefaultRoyalty","inputs":[{"name":"receiver","type":"address","internalType":"address"},{"name":"bps","type":"uint96","internalType":"uint96"}],"outputs":[],"stateMutability":"nonpayable"},{"type":"function","name":"setSaleActive","inputs":[{"name":"active","type":"bool","internalType":"bool"}],"outputs":[],"stateMutability":"nonpayable"},{"type":"function","name":"supportsInterface","inputs":[{"name":"interfaceId","type":"bytes4","internalType":"bytes4"}],"outputs":[{"name":"","type":"bool","internalType":"bool"}],"stateMutability":"view"},{"type":"function","name":"symbol","inputs":[],"outputs":[{"name":"","type":"string","internalType":"string"}],"stateMutability":"view"},{"type":"function","name":"tokenURI","inputs":[{"name":"tokenId","type":"uint256","internalType":"uint256"}],"outputs":[{"name":"","type":"string","internalType":"string"}],"stateMutability":"view"},{"type":"function","name":"totalSupply","inputs":[],"outputs":[{"name":"","type":"uint256","internalType":"uint256"}],"stateMutability":"view"},{"type":"function","name":"transferFrom","inputs":[{"name":"from","type":"address","internalType":"address"},{"name":"to","type":"address","internalType":"address"},{"name":"tokenId","type":"uint256","internalType":"uint256"}],"outputs":[],"stateMutability":"nonpayable"},{"type":"function","name":"transferOwnership","inputs":[{"name":"newOwner","type":"address","internalType":"address"}],"outputs":[],"stateMutability":"nonpayable"},{"type":"function","name":"upgradeToAndCall","inputs":[{"name":"newImplementation","type":"address","internalType":"address"},{"name":"data","type":"bytes","internalType":"bytes"}],"outputs":[],"stateMutability":"payable"},{"type":"function","name":"version","inputs":[],"outputs":[{"name":"","type":"uint256","internalType":"uint256"}],"stateMutability":"pure"},{"type":"function","name":"withdraw","inputs":[{"name":"to","type":"address","internalType":"address payable"}],"outputs":[],"stateMutability":"nonpayable"},{"type":"event","name":"Approval","inputs":[{"name":"owner","type":"address","indexed":true,"internalType":"address"},{"name":"approved","type":"address","indexed":true,"internalType":"address"},{"name":"tokenId","type":"uint256","indexed":true,"internalType":"uint256"}],"anonymous":false},{"type":"event","name":"ApprovalForAll","inputs":[{"name":"owner","type":"address","indexed":true,"internalType":"address"},{"name":"operator","type":"address","indexed":true,"internalType":"address"},{"name":"approved","type":"bool","indexed":false,"internalType":"bool"}],"anonymous":false},{"type":"event","name":"Initialized","inputs":[{"name":"version","type":"uint64","indexed":false,"internalType":"uint64"}],"anonymous":false},{"type":"event","name":"OwnershipTransferred","inputs":[{"name":"previousOwner","type":"address","indexed":true,"internalType":"address"},{"name":"newOwner","type":"address","indexed":true,"internalType":"address"}],"anonymous":false},{"type":"event","name":"Paused","inputs":[{"name":"account","type":"address","indexed":false,"internalType":"address"}],"anonymous":false},{"type":"event","name":"Transfer","inputs":[{"name":"from","type":"address","indexed":true,"internalType":"address"},{"name":"to","type":"address","indexed":true,"internalType":"address"},{"name":"tokenId","type":"uint256","indexed":true,"internalType":"uint256"}],"anonymous":false},{"type":"event","name":"Unpaused","inputs":[{"name":"account","type":"address","indexed":false,"internalType":"address"}],"anonymous":false},{"type":"event","name":"Upgraded","inputs":[{"name":"implementation","type":"address","indexed":true,"internalType":"address"}],"anonymous":false},{"type":"error","name":"AddressEmptyCode","inputs":[{"name":"target","type":"address","internalType":"address"}]},{"type":"error","name":"ERC1967InvalidImplementation","inputs":[{"name":"implementation","type":"address","internalType":"address"}]},{"type":"error","name":"ERC1967NonPayable","inputs":[]},{"type":"error","name":"ERC2981InvalidDefaultRoyalty","inputs":[{"name":"numerator","type":"uint256","internalType":"uint256"},{"name":"denominator","type":"uint256","internalType":"uint256"}]},{"type":"error","name":"ERC2981InvalidDefaultRoyaltyReceiver","inputs":[{"name":"receiver","type":"address","internalType":"address"}]},{"type":"error","name":"ERC2981InvalidTokenRoyalty","inputs":[{"name":"tokenId","type":"uint256","internalType":"uint256"},{"name":"numerator","type":"uint256","internalType":"uint256"},{"name":"denominator","type":"uint256","internalType":"uint256"}]},{"type":"error","name":"ERC2981InvalidTokenRoyaltyReceiver","inputs":[{"name":"tokenId","type":"uint256","internalType":"uint256"},{"name":"receiver","type":"address","internalType":"address"}]},{"type":"error","name":"ERC721IncorrectOwner","inputs":[{"name":"sender","type":"address","internalType":"address"},{"name":"tokenId","type":"uint256","internalType":"uint256"},{"name":"owner","type":"address","internalType":"address"}]},{"type":"error","name":"ERC721InsufficientApproval","inputs":[{"name":"operator","type":"address","internalType":"address"},{"name":"tokenId","type":"uint256","internalType":"uint256"}]},{"type":"error","name":"ERC721InvalidApprover","inputs":[{"name":"approver","type":"address","internalType":"address"}]},{"type":"error","name":"ERC721InvalidOperator","inputs":[{"name":"operator","type":"address","internalType":"address"}]},{"type":"error","name":"ERC721InvalidOwner","inputs":[{"name":"owner","type":"address","internalType":"address"}]},{"type":"error","name":"ERC721InvalidReceiver","inputs":[{"name":"receiver","type":"address","internalType":"address"}]},{"type":"error","name":"ERC721InvalidSender","inputs":[{"name":"sender","type":"address","internalType":"address"}]},{"type":"error","name":"ERC721NonexistentToken","inputs":[{"name":"tokenId","type":"uint256","internalType":"uint256"}]},{"type":"error","name":"EnforcedPause","inputs":[]},{"type":"error","name":"ExpectedPause","inputs":[]},{"type":"error","name":"FailedCall","inputs":[]},{"type":"error","name":"InvalidInitialization","inputs":[]},{"type":"error","name":"MRTNFToken__BaseURIEmpty","inputs":[]},{"type":"error","name":"MRTNFToken__InsufficientETH","inputs":[]},{"type":"error","name":"MRTNFToken__MaxSupplyExceeded","inputs":[]},{"type":"error","name":"MRTNFToken__MaxSupplyZero","inputs":[]},{"type":"error","name":"MRTNFToken__MintTooSoon","inputs":[]},{"type":"error","name":"MRTNFToken__QTYZero","inputs":[]},{"type":"error","name":"MRTNFToken__RoyaltyBpsZero","inputs":[]},{"type":"error","name":"MRTNFToken__RoyaltyReceiverZero","inputs":[]},{"type":"error","name":"MRTNFToken__WithdrawFailed","inputs":[]},{"type":"error","name":"NotInitializing","inputs":[]},{"type":"error","name":"OwnableInvalidOwner","inputs":[{"name":"owner","type":"address","internalType":"address"}]},{"type":"error","name":"OwnableUnauthorizedAccount","inputs":[{"name":"account","type":"address","internalType":"address"}]},{"type":"error","name":"ReentrancyGuardReentrantCall","inputs":[]},{"type":"error","name":"UUPSUnauthorizedCallContext","inputs":[]},{"type":"error","name":"UUPSUnsupportedProxiableUUID","inputs":[{"name":"slot","type":"bytes32","internalType":"bytes32"}]}],"bytecode":{"object":"0x60e06040523073ffffffffffffffffffffffffffffffffffffffff1660809073ffffffffffffffffffffffffffffffffffffffff168152506001600255348015610047575f5ffd5b506040516148343803806148348339818101604052810190610069919061025b565b600161008761007c6100b260201b60201c565b6100db60201b60201c565b5f018190555061009b6100e460201b60201c565b8160a081815250508060c0818152505050506102d4565b5f7f9b779b17422d0df92223018b32b4d1fa46e071723d6817e2486d003becc55f005f1b905090565b5f819050919050565b5f6100f36101e260201b60201c565b9050805f0160089054906101000a900460ff161561013d576040517ff92ee8a900000000000000000000000000000000000000000000000000000000815260040160405180910390fd5b67ffffffffffffffff8016815f015f9054906101000a900467ffffffffffffffff1667ffffffffffffffff16146101df5767ffffffffffffffff815f015f6101000a81548167ffffffffffffffff021916908367ffffffffffffffff1602179055507fc7f505b2f371ae2175ee4913f4499e1f2633a7b5936321eed1cdaeb6115181d267ffffffffffffffff6040516101d691906102bb565b60405180910390a15b50565b5f5f6101f26101fb60201b60201c565b90508091505090565b5f7ff0c57e16840df040f15088dc2f81fe391c3923bec73e23a9662efc9c229c6a005f1b905090565b5f5ffd5b5f819050919050565b61023a81610228565b8114610244575f5ffd5b50565b5f8151905061025581610231565b92915050565b5f5f6040838503121561027157610270610224565b5b5f61027e85828601610247565b925050602061028f85828601610247565b9150509250929050565b5f67ffffffffffffffff82169050919050565b6102b581610299565b82525050565b5f6020820190506102ce5f8301846102ac565b92915050565b60805160a05160c05161451a61031a5f395f8181610afb0152610f7101525f8181610c960152610f0301525f8181611c4801528181611c9d0152611e57015261451a5ff3fe6080604052600436106101f8575f3560e01c8063646cfb6f1161010c578063a22cb4651161009f578063b88d4fde1161006e578063b88d4fde146106d7578063c87b56dd146106ff578063ce75f3331461073b578063e985e9c514610763578063f2fde38b1461079f576101f8565b8063a22cb46514610633578063aa1b103f1461065b578063ad3cb1cc14610671578063adc20b1c1461069b576101f8565b806384e7e3d3116100db57806384e7e3d3146105995780638da5cb5b146105c357806395d89b41146105ed578063a0712d6814610617576101f8565b8063646cfb6f146104f557806370a082311461051f578063715018a61461055b578063841718a614610571576101f8565b80633161f19e1161018f57806352d1902d1161015e57806352d1902d1461041357806354fd4d501461043d57806355f804b3146104675780635c975abb1461048f5780636352211e146104b9576101f8565b80633161f19e1461037d57806342842e0e146103a75780634f1ef286146103cf57806351cff8d9146103eb576101f8565b8063095ea7b3116101cb578063095ea7b3146102c657806318160ddd146102ee57806323b872dd146103185780632a55205a14610340576101f8565b806301ffc9a7146101fc57806304634d8d1461023857806306fdde0314610260578063081812fc1461028a575b5f5ffd5b348015610207575f5ffd5b50610222600480360381019061021d919061343f565b6107c7565b60405161022f9190613484565b60405180910390f35b348015610243575f5ffd5b5061025e60048036038101906102599190613538565b6107d8565b005b34801561026b575f5ffd5b506102746107ee565b60405161028191906135e6565b60405180910390f35b348015610295575f5ffd5b506102b060048036038101906102ab9190613639565b61088b565b6040516102bd9190613673565b60405180910390f35b3480156102d1575f5ffd5b506102ec60048036038101906102e7919061368c565b6108a6565b005b3480156102f9575f5ffd5b506103026108bc565b60405161030f91906136d9565b60405180910390f35b348015610323575f5ffd5b5061033e600480360381019061033991906136f2565b6108c8565b005b34801561034b575f5ffd5b5061036660048036038101906103619190613742565b6109c7565b604051610374929190613780565b60405180910390f35b348015610388575f5ffd5b50610391610af9565b60405161039e91906136d9565b60405180910390f35b3480156103b2575f5ffd5b506103cd60048036038101906103c891906136f2565b610b1d565b005b6103e960048036038101906103e491906138d3565b610b3c565b005b3480156103f6575f5ffd5b50610411600480360381019061040c9190613968565b610b5b565b005b34801561041e575f5ffd5b50610427610c0b565b60405161043491906139ab565b60405180910390f35b348015610448575f5ffd5b50610451610c3c565b60405161045e91906136d9565b60405180910390f35b348015610472575f5ffd5b5061048d60048036038101906104889190613a21565b610c44565b005b34801561049a575f5ffd5b506104a3610c61565b6040516104b09190613484565b60405180910390f35b3480156104c4575f5ffd5b506104df60048036038101906104da9190613639565b610c83565b6040516104ec9190613673565b60405180910390f35b348015610500575f5ffd5b50610509610c94565b60405161051691906136d9565b60405180910390f35b34801561052a575f5ffd5b5061054560048036038101906105409190613a6c565b610cb8565b60405161055291906136d9565b60405180910390f35b348015610566575f5ffd5b5061056f610d7c565b005b34801561057c575f5ffd5b5061059760048036038101906105929190613ac1565b610d8f565b005b3480156105a4575f5ffd5b506105ad610ddf565b6040516105ba91906136d9565b60405180910390f35b3480156105ce575f5ffd5b506105d7610de5565b6040516105e49190613673565b60405180910390f35b3480156105f8575f5ffd5b50610601610e1a565b60405161060e91906135e6565b60405180910390f35b610631600480360381019061062c9190613639565b610eb8565b005b34801561063e575f5ffd5b5061065960048036038101906106549190613aec565b6111b1565b005b348015610666575f5ffd5b5061066f6111c7565b005b34801561067c575f5ffd5b506106856111d9565b60405161069291906135e6565b60405180910390f35b3480156106a6575f5ffd5b506106c160048036038101906106bc9190613a6c565b611212565b6040516106ce91906136d9565b60405180910390f35b3480156106e2575f5ffd5b506106fd60048036038101906106f89190613b2a565b611227565b005b34801561070a575f5ffd5b5061072560048036038101906107209190613639565b61124c565b60405161073291906135e6565b60405180910390f35b348015610746575f5ffd5b50610761600480360381019061075c9190613c48565b61127d565b005b34801561076e575f5ffd5b5061078960048036038101906107849190613cc8565b61158c565b6040516107969190613484565b60405180910390f35b3480156107aa575f5ffd5b506107c560048036038101906107c09190613a6c565b611628565b005b5f6107d1826116ac565b9050919050565b6107e06116bd565b6107ea8282611744565b5050565b60605f6107f96118ec565b9050805f01805461080990613d33565b80601f016020809104026020016040519081016040528092919081815260200182805461083590613d33565b80156108805780601f1061085757610100808354040283529160200191610880565b820191905f5260205f20905b81548152906001019060200180831161086357829003601f168201915b505050505091505090565b5f61089582611913565b5061089f82611999565b9050919050565b6108b882826108b36119e0565b6119e7565b5050565b5f600160025403905090565b5f73ffffffffffffffffffffffffffffffffffffffff168273ffffffffffffffffffffffffffffffffffffffff1603610938575f6040517f64a0ae9200000000000000000000000000000000000000000000000000000000815260040161092f9190613673565b60405180910390fd5b5f61094b83836109466119e0565b6119f9565b90508373ffffffffffffffffffffffffffffffffffffffff168173ffffffffffffffffffffffffffffffffffffffff16146109c1578382826040517f64283d7b0000000000000000000000000000000000000000000000000000000081526004016109b893929190613d63565b60405180910390fd5b50505050565b5f5f5f6109d2611c16565b90505f816001015f8781526020019081526020015f2090505f815f015f9054906101000a900473ffffffffffffffffffffffffffffffffffffffff1690505f825f0160149054906101000a90046bffffffffffffffffffffffff1690505f73ffffffffffffffffffffffffffffffffffffffff168273ffffffffffffffffffffffffffffffffffffffff1603610aaa57835f015f015f9054906101000a900473ffffffffffffffffffffffffffffffffffffffff169150835f015f0160149054906101000a90046bffffffffffffffffffffffff1690505b5f610ab3611c3d565b6bffffffffffffffffffffffff16826bffffffffffffffffffffffff1689610adb9190613dc5565b610ae59190613e33565b905082819650965050505050509250929050565b7f000000000000000000000000000000000000000000000000000000000000000081565b610b3783838360405180602001604052805f815250611227565b505050565b610b44611c46565b610b4d82611d2c565b610b578282611d37565b5050565b610b636116bd565b5f8173ffffffffffffffffffffffffffffffffffffffff164761753090604051610b8c90613e90565b5f60405180830381858888f193505050503d805f8114610bc7576040519150601f19603f3d011682016040523d82523d5f602084013e610bcc565b606091505b5050905080610c07576040517f0b4f6ad500000000000000000000000000000000000000000000000000000000815260040160405180910390fd5b5050565b5f610c14611e55565b7f360894a13ba1a3210667c828492db98dca3e2076cc3735a920a3ca505d382bbc5f1b905090565b5f6001905090565b610c4c6116bd565b81815f9182610c5c92919061404e565b505050565b5f5f610c6b611edc565b9050805f015f9054906101000a900460ff1691505090565b5f610c8d82611913565b9050919050565b7f000000000000000000000000000000000000000000000000000000000000000081565b5f5f610cc26118ec565b90505f73ffffffffffffffffffffffffffffffffffffffff168373ffffffffffffffffffffffffffffffffffffffff1603610d34575f6040517f89c62b64000000000000000000000000000000000000000000000000000000008152600401610d2b9190613673565b60405180910390fd5b806003015f8473ffffffffffffffffffffffffffffffffffffffff1673ffffffffffffffffffffffffffffffffffffffff1681526020019081526020015f2054915050919050565b610d846116bd565b610d8d5f611f03565b565b610d976116bd565b808015610da85750610da7610c61565b5b15610dba57610db5611fd4565b610ddc565b80158015610dcd5750610dcb610c61565b155b15610ddb57610dda612042565b5b5b50565b610e1081565b5f5f610def6120b1565b9050805f015f9054906101000a900473ffffffffffffffffffffffffffffffffffffffff1691505090565b60605f610e256118ec565b9050806001018054610e3690613d33565b80601f0160208091040260200160405190810160405280929190818152602001828054610e6290613d33565b8015610ead5780601f10610e8457610100808354040283529160200191610ead565b820191905f5260205f20905b815481529060010190602001808311610e9057829003601f168201915b505050505091505090565b610ec06120d8565b610ec8612119565b5f8111610f01576040517f2fc6556100000000000000000000000000000000000000000000000000000000815260040160405180910390fd5b7f000000000000000000000000000000000000000000000000000000000000000081610f2b6108bc565b610f35919061411b565b1115610f6d576040517fc0f24c9300000000000000000000000000000000000000000000000000000000815260040160405180910390fd5b5f817f0000000000000000000000000000000000000000000000000000000000000000610f9a9190613dc5565b905080341015610fd6576040517f56273f6300000000000000000000000000000000000000000000000000000000815260040160405180910390fd5b5f60015f3373ffffffffffffffffffffffffffffffffffffffff1673ffffffffffffffffffffffffffffffffffffffff1681526020019081526020015f205411156110a057610e1060015f3373ffffffffffffffffffffffffffffffffffffffff1673ffffffffffffffffffffffffffffffffffffffff1681526020019081526020015f2054611066919061411b565b42101561109f576040517f6ef2544700000000000000000000000000000000000000000000000000000000815260040160405180910390fd5b5b5f5f90505b828110156110e0575f600254905060016002546110c2919061411b565b6002819055506110d2338261213b565b5080806001019150506110a5565b504260015f3373ffffffffffffffffffffffffffffffffffffffff1673ffffffffffffffffffffffffffffffffffffffff1681526020019081526020015f20819055505f8134611130919061414e565b90505f8111156111a4575f3373ffffffffffffffffffffffffffffffffffffffff168260405161115f90613e90565b5f6040518083038185875af1925050503d805f8114611199576040519150601f19603f3d011682016040523d82523d5f602084013e61119e565b606091505b50509050505b50506111ae612158565b50565b6111c36111bc6119e0565b8383612172565b5050565b6111cf6116bd565b6111d76122e9565b565b6040518060400160405280600581526020017f352e302e3000000000000000000000000000000000000000000000000000000081525081565b6001602052805f5260405f205f915090505481565b6112328484846108c8565b61124661123d6119e0565b85858585612340565b50505050565b6060611257826124ec565b60405160200161126791906141e1565b6040516020818303038152906040529050919050565b5f611286612552565b90505f815f0160089054906101000a900460ff161590505f825f015f9054906101000a900467ffffffffffffffff1690505f5f8267ffffffffffffffff161480156112ce5750825b90505f60018367ffffffffffffffff1614801561130157505f3073ffffffffffffffffffffffffffffffffffffffff163b145b90508115801561130f575080155b15611346576040517ff92ee8a900000000000000000000000000000000000000000000000000000000815260040160405180910390fd5b6001855f015f6101000a81548167ffffffffffffffff021916908367ffffffffffffffff1602179055508315611393576001855f0160086101000a81548160ff0219169083151502179055505b6114076040518060400160405280600a81526020017f4d52544e46546f6b656e000000000000000000000000000000000000000000008152506040518060400160405280600681526020017f4d52544e46540000000000000000000000000000000000000000000000000000815250612565565b61140f61257b565b61141889612585565b611420612599565b5f88511161145a576040517f4b05aa1300000000000000000000000000000000000000000000000000000000815260040160405180910390fd5b5f73ffffffffffffffffffffffffffffffffffffffff168773ffffffffffffffffffffffffffffffffffffffff16036114bf576040517fe7c8812f00000000000000000000000000000000000000000000000000000000815260040160405180910390fd5b5f866bffffffffffffffffffffffff1611611506576040517fed77816900000000000000000000000000000000000000000000000000000000815260040160405180910390fd5b875f90816115149190614206565b5060016002819055506115278787611744565b8315611581575f855f0160086101000a81548160ff0219169083151502179055507fc7f505b2f371ae2175ee4913f4499e1f2633a7b5936321eed1cdaeb6115181d260016040516115789190614321565b60405180910390a15b505050505050505050565b5f5f6115966118ec565b9050806005015f8573ffffffffffffffffffffffffffffffffffffffff1673ffffffffffffffffffffffffffffffffffffffff1681526020019081526020015f205f8473ffffffffffffffffffffffffffffffffffffffff1673ffffffffffffffffffffffffffffffffffffffff1681526020019081526020015f205f9054906101000a900460ff1691505092915050565b6116306116bd565b5f73ffffffffffffffffffffffffffffffffffffffff168173ffffffffffffffffffffffffffffffffffffffff16036116a0575f6040517f1e4fbdf70000000000000000000000000000000000000000000000000000000081526004016116979190613673565b60405180910390fd5b6116a981611f03565b50565b5f6116b6826125a3565b9050919050565b6116c56119e0565b73ffffffffffffffffffffffffffffffffffffffff166116e3610de5565b73ffffffffffffffffffffffffffffffffffffffff1614611742576117066119e0565b6040517f118cdaa70000000000000000000000000000000000000000000000000000000081526004016117399190613673565b60405180910390fd5b565b5f61174d611c16565b90505f611758611c3d565b6bffffffffffffffffffffffff16905080836bffffffffffffffffffffffff1611156117bd5782816040517f6f483d090000000000000000000000000000000000000000000000000000000081526004016117b492919061436a565b60405180910390fd5b5f73ffffffffffffffffffffffffffffffffffffffff168473ffffffffffffffffffffffffffffffffffffffff160361182d575f6040517fb6d9900a0000000000000000000000000000000000000000000000000000000081526004016118249190613673565b60405180910390fd5b60405180604001604052808573ffffffffffffffffffffffffffffffffffffffff168152602001846bffffffffffffffffffffffff16815250825f015f820151815f015f6101000a81548173ffffffffffffffffffffffffffffffffffffffff021916908373ffffffffffffffffffffffffffffffffffffffff1602179055506020820151815f0160146101000a8154816bffffffffffffffffffffffff02191690836bffffffffffffffffffffffff16021790555090505050505050565b5f7f80bb2b638cc20bc4d0a60d66940f3ab4a00c1d7b313497ca82fb0b4ab0079300905090565b5f5f61191e83612684565b90505f73ffffffffffffffffffffffffffffffffffffffff168173ffffffffffffffffffffffffffffffffffffffff160361199057826040517f7e27328900000000000000000000000000000000000000000000000000000000815260040161198791906136d9565b60405180910390fd5b80915050919050565b5f5f6119a36118ec565b9050806004015f8481526020019081526020015f205f9054906101000a900473ffffffffffffffffffffffffffffffffffffffff16915050919050565b5f33905090565b6119f483838360016126cb565b505050565b5f5f611a036118ec565b90505f611a0f85612684565b90505f73ffffffffffffffffffffffffffffffffffffffff168473ffffffffffffffffffffffffffffffffffffffff1614611a5057611a4f818587612898565b5b5f73ffffffffffffffffffffffffffffffffffffffff168173ffffffffffffffffffffffffffffffffffffffff1614611add57611a8f5f865f5f6126cb565b6001826003015f8373ffffffffffffffffffffffffffffffffffffffff1673ffffffffffffffffffffffffffffffffffffffff1681526020019081526020015f205f82825403925050819055505b5f73ffffffffffffffffffffffffffffffffffffffff168673ffffffffffffffffffffffffffffffffffffffff1614611b5e576001826003015f8873ffffffffffffffffffffffffffffffffffffffff1673ffffffffffffffffffffffffffffffffffffffff1681526020019081526020015f205f82825401925050819055505b85826002015f8781526020019081526020015f205f6101000a81548173ffffffffffffffffffffffffffffffffffffffff021916908373ffffffffffffffffffffffffffffffffffffffff160217905550848673ffffffffffffffffffffffffffffffffffffffff168273ffffffffffffffffffffffffffffffffffffffff167fddf252ad1be2c89b69c2b068fc378daa952ba7f163c4a11628f55a4df523b3ef60405160405180910390a480925050509392505050565b5f7fdaedc9ab023613a7caf35e703657e986ccfad7e3eb0af93a2853f8d65dd86b00905090565b5f612710905090565b7f000000000000000000000000000000000000000000000000000000000000000073ffffffffffffffffffffffffffffffffffffffff163073ffffffffffffffffffffffffffffffffffffffff161480611cf357507f000000000000000000000000000000000000000000000000000000000000000073ffffffffffffffffffffffffffffffffffffffff16611cda61295b565b73ffffffffffffffffffffffffffffffffffffffff1614155b15611d2a576040517fe07c8dba00000000000000000000000000000000000000000000000000000000815260040160405180910390fd5b565b611d346116bd565b50565b8173ffffffffffffffffffffffffffffffffffffffff166352d1902d6040518163ffffffff1660e01b8152600401602060405180830381865afa925050508015611d9f57506040513d601f19601f82011682018060405250810190611d9c91906143bb565b60015b611de057816040517f4c9c8ce3000000000000000000000000000000000000000000000000000000008152600401611dd79190613673565b60405180910390fd5b7f360894a13ba1a3210667c828492db98dca3e2076cc3735a920a3ca505d382bbc5f1b8114611e4657806040517faa1d49a4000000000000000000000000000000000000000000000000000000008152600401611e3d91906139ab565b60405180910390fd5b611e5083836129ae565b505050565b7f000000000000000000000000000000000000000000000000000000000000000073ffffffffffffffffffffffffffffffffffffffff163073ffffffffffffffffffffffffffffffffffffffff1614611eda576040517fe07c8dba00000000000000000000000000000000000000000000000000000000815260040160405180910390fd5b565b5f7fcd5ed15c6e187e77e9aee88184c21f4f2182ab5827cb3b7e07fbedcd63f03300905090565b5f611f0c6120b1565b90505f815f015f9054906101000a900473ffffffffffffffffffffffffffffffffffffffff16905082825f015f6101000a81548173ffffffffffffffffffffffffffffffffffffffff021916908373ffffffffffffffffffffffffffffffffffffffff1602179055508273ffffffffffffffffffffffffffffffffffffffff168173ffffffffffffffffffffffffffffffffffffffff167f8be0079c531659141344cd1fd0a4f28419497f9722a3daafe3b4186f6b6457e060405160405180910390a3505050565b611fdc612a20565b5f611fe5611edc565b90505f815f015f6101000a81548160ff0219169083151502179055507f5db9ee0a495bf2e6ff9c91a7834c1ba4fdd244a5e8aa4e537bd38aeae4b073aa61202a6119e0565b6040516120379190613673565b60405180910390a150565b61204a6120d8565b5f612053611edc565b90506001815f015f6101000a81548160ff0219169083151502179055507f62e78cea01bee320cd4e420270b5ea74000d11b0c9f74754ebdbfc544b05a2586120996119e0565b6040516120a69190613673565b60405180910390a150565b5f7f9016d09d72d40fdae2fd8ceac6b6234c7706214fd39c1cd1e609a0528c199300905090565b6120e0610c61565b15612117576040517fd93c066500000000000000000000000000000000000000000000000000000000815260040160405180910390fd5b565b612121612a60565b600261213361212e612aa1565b612aca565b5f0181905550565b612154828260405180602001604052805f815250612ad3565b5050565b600161216a612165612aa1565b612aca565b5f0181905550565b5f61217b6118ec565b90505f73ffffffffffffffffffffffffffffffffffffffff168373ffffffffffffffffffffffffffffffffffffffff16036121ed57826040517f5b08ba180000000000000000000000000000000000000000000000000000000081526004016121e49190613673565b60405180910390fd5b81816005015f8673ffffffffffffffffffffffffffffffffffffffff1673ffffffffffffffffffffffffffffffffffffffff1681526020019081526020015f205f8573ffffffffffffffffffffffffffffffffffffffff1673ffffffffffffffffffffffffffffffffffffffff1681526020019081526020015f205f6101000a81548160ff0219169083151502179055508273ffffffffffffffffffffffffffffffffffffffff168473ffffffffffffffffffffffffffffffffffffffff167f17307eab39ab6107e8899845ad3d59bd9653f200f220920489ca2b5937696c31846040516122db9190613484565b60405180910390a350505050565b5f6122f2611c16565b9050805f015f5f82015f6101000a81549073ffffffffffffffffffffffffffffffffffffffff02191690555f820160146101000a8154906bffffffffffffffffffffffff0219169055505050565b5f8373ffffffffffffffffffffffffffffffffffffffff163b11156124e5578273ffffffffffffffffffffffffffffffffffffffff1663150b7a02868685856040518563ffffffff1660e01b815260040161239e9493929190614438565b6020604051808303815f875af19250505080156123d957506040513d601f19601f820116820180604052508101906123d69190614496565b60015b61245a573d805f8114612407576040519150601f19603f3d011682016040523d82523d5f602084013e61240c565b606091505b505f81510361245257836040517f64a0ae920000000000000000000000000000000000000000000000000000000081526004016124499190613673565b60405180910390fd5b805160208201fd5b63150b7a0260e01b7bffffffffffffffffffffffffffffffffffffffffffffffffffffffff1916817bffffffffffffffffffffffffffffffffffffffffffffffffffffffff1916146124e357836040517f64a0ae920000000000000000000000000000000000000000000000000000000081526004016124da9190613673565b60405180910390fd5b505b5050505050565b60606124f782611913565b505f612501612af6565b90505f81511161251f5760405180602001604052805f81525061254a565b8061252984612b85565b60405160200161253a9291906144c1565b6040516020818303038152906040525b915050919050565b5f5f61255c612c4f565b90508091505090565b61256d612c78565b6125778282612cb8565b5050565b612583612c78565b565b61258d612c78565b61259681612cf3565b50565b6125a1612c78565b565b5f7f80ac58cd000000000000000000000000000000000000000000000000000000007bffffffffffffffffffffffffffffffffffffffffffffffffffffffff1916827bffffffffffffffffffffffffffffffffffffffffffffffffffffffff1916148061266d57507f5b5e139f000000000000000000000000000000000000000000000000000000007bffffffffffffffffffffffffffffffffffffffffffffffffffffffff1916827bffffffffffffffffffffffffffffffffffffffffffffffffffffffff1916145b8061267d575061267c82612d77565b5b9050919050565b5f5f61268e6118ec565b9050806002015f8481526020019081526020015f205f9054906101000a900473ffffffffffffffffffffffffffffffffffffffff16915050919050565b5f6126d46118ec565b9050818061270e57505f73ffffffffffffffffffffffffffffffffffffffff168373ffffffffffffffffffffffffffffffffffffffff1614155b15612840575f61271d85611913565b90505f73ffffffffffffffffffffffffffffffffffffffff168473ffffffffffffffffffffffffffffffffffffffff161415801561278757508373ffffffffffffffffffffffffffffffffffffffff168173ffffffffffffffffffffffffffffffffffffffff1614155b801561279a5750612798818561158c565b155b156127dc57836040517fa9fbf51f0000000000000000000000000000000000000000000000000000000081526004016127d39190613673565b60405180910390fd5b821561283e57848673ffffffffffffffffffffffffffffffffffffffff168273ffffffffffffffffffffffffffffffffffffffff167f8c5be1e5ebec7d5bd14f71427d1e84f3dd0314c0f7b2291e5b200ac8c7c3b92560405160405180910390a45b505b84816004015f8681526020019081526020015f205f6101000a81548173ffffffffffffffffffffffffffffffffffffffff021916908373ffffffffffffffffffffffffffffffffffffffff1602179055505050505050565b6128a3838383612df0565b612956575f73ffffffffffffffffffffffffffffffffffffffff168373ffffffffffffffffffffffffffffffffffffffff160361291757806040517f7e27328900000000000000000000000000000000000000000000000000000000815260040161290e91906136d9565b60405180910390fd5b81816040517f177e802f00000000000000000000000000000000000000000000000000000000815260040161294d929190613780565b60405180910390fd5b505050565b5f6129877f360894a13ba1a3210667c828492db98dca3e2076cc3735a920a3ca505d382bbc5f1b612eb0565b5f015f9054906101000a900473ffffffffffffffffffffffffffffffffffffffff16905090565b6129b782612eb9565b8173ffffffffffffffffffffffffffffffffffffffff167fbc7cd75a20ee27fd9adebab32041f755214dbc6bffa90cc0225b39da2e5c2d3b60405160405180910390a25f81511115612a1357612a0d8282612f82565b50612a1c565b612a1b613073565b5b5050565b612a28610c61565b612a5e576040517f8dfc202b00000000000000000000000000000000000000000000000000000000815260040160405180910390fd5b565b612a686130af565b15612a9f576040517f3ee5aeb500000000000000000000000000000000000000000000000000000000815260040160405180910390fd5b565b5f7f9b779b17422d0df92223018b32b4d1fa46e071723d6817e2486d003becc55f005f1b905090565b5f819050919050565b612add83836130cb565b612af1612ae86119e0565b5f858585612340565b505050565b60605f8054612b0490613d33565b80601f0160208091040260200160405190810160405280929190818152602001828054612b3090613d33565b8015612b7b5780601f10612b5257610100808354040283529160200191612b7b565b820191905f5260205f20905b815481529060010190602001808311612b5e57829003601f168201915b5050505050905090565b60605f6001612b93846131be565b0190505f8167ffffffffffffffff811115612bb157612bb06137af565b5b6040519080825280601f01601f191660200182016040528015612be35781602001600182028036833780820191505090505b5090505f82602083010190505b600115612c44578080600190039150507f3031323334353637383961626364656600000000000000000000000000000000600a86061a8153600a8581612c3957612c38613e06565b5b0494505f8503612bf0575b819350505050919050565b5f7ff0c57e16840df040f15088dc2f81fe391c3923bec73e23a9662efc9c229c6a005f1b905090565b612c8061330f565b612cb6576040517fd7e6bcf800000000000000000000000000000000000000000000000000000000815260040160405180910390fd5b565b612cc0612c78565b5f612cc96118ec565b905082815f019081612cdb9190614206565b5081816001019081612ced9190614206565b50505050565b612cfb612c78565b5f73ffffffffffffffffffffffffffffffffffffffff168173ffffffffffffffffffffffffffffffffffffffff1603612d6b575f6040517f1e4fbdf7000000000000000000000000000000000000000000000000000000008152600401612d629190613673565b60405180910390fd5b612d7481611f03565b50565b5f7f2a55205a000000000000000000000000000000000000000000000000000000007bffffffffffffffffffffffffffffffffffffffffffffffffffffffff1916827bffffffffffffffffffffffffffffffffffffffffffffffffffffffff19161480612de95750612de88261332d565b5b9050919050565b5f5f73ffffffffffffffffffffffffffffffffffffffff168373ffffffffffffffffffffffffffffffffffffffff1614158015612ea757508273ffffffffffffffffffffffffffffffffffffffff168473ffffffffffffffffffffffffffffffffffffffff161480612e685750612e67848461158c565b5b80612ea657508273ffffffffffffffffffffffffffffffffffffffff16612e8e83611999565b73ffffffffffffffffffffffffffffffffffffffff16145b5b90509392505050565b5f819050919050565b5f8173ffffffffffffffffffffffffffffffffffffffff163b03612f1457806040517f4c9c8ce3000000000000000000000000000000000000000000000000000000008152600401612f0b9190613673565b60405180910390fd5b80612f407f360894a13ba1a3210667c828492db98dca3e2076cc3735a920a3ca505d382bbc5f1b612eb0565b5f015f6101000a81548173ffffffffffffffffffffffffffffffffffffffff021916908373ffffffffffffffffffffffffffffffffffffffff16021790555050565b60605f612f8f8484613396565b9050808015612fc557505f612fa26133aa565b1180612fc457505f8473ffffffffffffffffffffffffffffffffffffffff163b115b5b15612fda57612fd26133b1565b91505061306d565b801561301d57836040517f9996b3150000000000000000000000000000000000000000000000000000000081526004016130149190613673565b60405180910390fd5b5f6130266133aa565b1115613039576130346133ce565b61306b565b6040517fd6bda27500000000000000000000000000000000000000000000000000000000815260040160405180910390fd5b505b92915050565b5f3411156130ad576040517fb398979f00000000000000000000000000000000000000000000000000000000815260040160405180910390fd5b565b5f60026130c26130bd612aa1565b612aca565b5f015414905090565b5f73ffffffffffffffffffffffffffffffffffffffff168273ffffffffffffffffffffffffffffffffffffffff160361313b575f6040517f64a0ae920000000000000000000000000000000000000000000000000000000081526004016131329190613673565b60405180910390fd5b5f61314783835f6119f9565b90505f73ffffffffffffffffffffffffffffffffffffffff168173ffffffffffffffffffffffffffffffffffffffff16146131b9575f6040517f73c6ac6e0000000000000000000000000000000000000000000000000000000081526004016131b09190613673565b60405180910390fd5b505050565b5f5f5f90507a184f03e93ff9f4daa797ed6e38ed64bf6a1f010000000000000000831061321a577a184f03e93ff9f4daa797ed6e38ed64bf6a1f01000000000000000083816132105761320f613e06565b5b0492506040810190505b6d04ee2d6d415b85acef81000000008310613257576d04ee2d6d415b85acef8100000000838161324d5761324c613e06565b5b0492506020810190505b662386f26fc10000831061328657662386f26fc10000838161327c5761327b613e06565b5b0492506010810190505b6305f5e10083106132af576305f5e10083816132a5576132a4613e06565b5b0492506008810190505b61271083106132d45761271083816132ca576132c9613e06565b5b0492506004810190505b606483106132f757606483816132ed576132ec613e06565b5b0492506002810190505b600a8310613306576001810190505b80915050919050565b5f613318612552565b5f0160089054906101000a900460ff16905090565b5f7f01ffc9a7000000000000000000000000000000000000000000000000000000007bffffffffffffffffffffffffffffffffffffffffffffffffffffffff1916827bffffffffffffffffffffffffffffffffffffffffffffffffffffffff1916149050919050565b5f5f5f835160208501865af4905092915050565b5f3d905090565b606060405190503d81523d5f602083013e3d602001810160405290565b6040513d5f823e3d81fd5b5f604051905090565b5f5ffd5b5f5ffd5b5f7fffffffff0000000000000000000000000000000000000000000000000000000082169050919050565b61341e816133ea565b8114613428575f5ffd5b50565b5f8135905061343981613415565b92915050565b5f60208284031215613454576134536133e2565b5b5f6134618482850161342b565b91505092915050565b5f8115159050919050565b61347e8161346a565b82525050565b5f6020820190506134975f830184613475565b92915050565b5f73ffffffffffffffffffffffffffffffffffffffff82169050919050565b5f6134c68261349d565b9050919050565b6134d6816134bc565b81146134e0575f5ffd5b50565b5f813590506134f1816134cd565b92915050565b5f6bffffffffffffffffffffffff82169050919050565b613517816134f7565b8114613521575f5ffd5b50565b5f813590506135328161350e565b92915050565b5f5f6040838503121561354e5761354d6133e2565b5b5f61355b858286016134e3565b925050602061356c85828601613524565b9150509250929050565b5f81519050919050565b5f82825260208201905092915050565b8281835e5f83830152505050565b5f601f19601f8301169050919050565b5f6135b882613576565b6135c28185613580565b93506135d2818560208601613590565b6135db8161359e565b840191505092915050565b5f6020820190508181035f8301526135fe81846135ae565b905092915050565b5f819050919050565b61361881613606565b8114613622575f5ffd5b50565b5f813590506136338161360f565b92915050565b5f6020828403121561364e5761364d6133e2565b5b5f61365b84828501613625565b91505092915050565b61366d816134bc565b82525050565b5f6020820190506136865f830184613664565b92915050565b5f5f604083850312156136a2576136a16133e2565b5b5f6136af858286016134e3565b92505060206136c085828601613625565b9150509250929050565b6136d381613606565b82525050565b5f6020820190506136ec5f8301846136ca565b92915050565b5f5f5f60608486031215613709576137086133e2565b5b5f613716868287016134e3565b9350506020613727868287016134e3565b925050604061373886828701613625565b9150509250925092565b5f5f60408385031215613758576137576133e2565b5b5f61376585828601613625565b925050602061377685828601613625565b9150509250929050565b5f6040820190506137935f830185613664565b6137a060208301846136ca565b9392505050565b5f5ffd5b5f5ffd5b7f4e487b71000000000000000000000000000000000000000000000000000000005f52604160045260245ffd5b6137e58261359e565b810181811067ffffffffffffffff82111715613804576138036137af565b5b80604052505050565b5f6138166133d9565b905061382282826137dc565b919050565b5f67ffffffffffffffff821115613841576138406137af565b5b61384a8261359e565b9050602081019050919050565b828183375f83830152505050565b5f61387761387284613827565b61380d565b905082815260208101848484011115613893576138926137ab565b5b61389e848285613857565b509392505050565b5f82601f8301126138ba576138b96137a7565b5b81356138ca848260208601613865565b91505092915050565b5f5f604083850312156138e9576138e86133e2565b5b5f6138f6858286016134e3565b925050602083013567ffffffffffffffff811115613917576139166133e6565b5b613923858286016138a6565b9150509250929050565b5f6139378261349d565b9050919050565b6139478161392d565b8114613951575f5ffd5b50565b5f813590506139628161393e565b92915050565b5f6020828403121561397d5761397c6133e2565b5b5f61398a84828501613954565b91505092915050565b5f819050919050565b6139a581613993565b82525050565b5f6020820190506139be5f83018461399c565b92915050565b5f5ffd5b5f5ffd5b5f5f83601f8401126139e1576139e06137a7565b5b8235905067ffffffffffffffff8111156139fe576139fd6139c4565b5b602083019150836001820283011115613a1a57613a196139c8565b5b9250929050565b5f5f60208385031215613a3757613a366133e2565b5b5f83013567ffffffffffffffff811115613a5457613a536133e6565b5b613a60858286016139cc565b92509250509250929050565b5f60208284031215613a8157613a806133e2565b5b5f613a8e848285016134e3565b91505092915050565b613aa08161346a565b8114613aaa575f5ffd5b50565b5f81359050613abb81613a97565b92915050565b5f60208284031215613ad657613ad56133e2565b5b5f613ae384828501613aad565b91505092915050565b5f5f60408385031215613b0257613b016133e2565b5b5f613b0f858286016134e3565b9250506020613b2085828601613aad565b9150509250929050565b5f5f5f5f60808587031215613b4257613b416133e2565b5b5f613b4f878288016134e3565b9450506020613b60878288016134e3565b9350506040613b7187828801613625565b925050606085013567ffffffffffffffff811115613b9257613b916133e6565b5b613b9e878288016138a6565b91505092959194509250565b5f67ffffffffffffffff821115613bc457613bc36137af565b5b613bcd8261359e565b9050602081019050919050565b5f613bec613be784613baa565b61380d565b905082815260208101848484011115613c0857613c076137ab565b5b613c13848285613857565b509392505050565b5f82601f830112613c2f57613c2e6137a7565b5b8135613c3f848260208601613bda565b91505092915050565b5f5f5f5f60808587031215613c6057613c5f6133e2565b5b5f613c6d878288016134e3565b945050602085013567ffffffffffffffff811115613c8e57613c8d6133e6565b5b613c9a87828801613c1b565b9350506040613cab878288016134e3565b9250506060613cbc87828801613524565b91505092959194509250565b5f5f60408385031215613cde57613cdd6133e2565b5b5f613ceb858286016134e3565b9250506020613cfc858286016134e3565b9150509250929050565b7f4e487b71000000000000000000000000000000000000000000000000000000005f52602260045260245ffd5b5f6002820490506001821680613d4a57607f821691505b602082108103613d5d57613d5c613d06565b5b50919050565b5f606082019050613d765f830186613664565b613d8360208301856136ca565b613d906040830184613664565b949350505050565b7f4e487b71000000000000000000000000000000000000000000000000000000005f52601160045260245ffd5b5f613dcf82613606565b9150613dda83613606565b9250828202613de881613606565b91508282048414831517613dff57613dfe613d98565b5b5092915050565b7f4e487b71000000000000000000000000000000000000000000000000000000005f52601260045260245ffd5b5f613e3d82613606565b9150613e4883613606565b925082613e5857613e57613e06565b5b828204905092915050565b5f81905092915050565b50565b5f613e7b5f83613e63565b9150613e8682613e6d565b5f82019050919050565b5f613e9a82613e70565b9150819050919050565b5f82905092915050565b5f819050815f5260205f209050919050565b5f6020601f8301049050919050565b5f82821b905092915050565b5f60088302613f0a7fffffffffffffffffffffffffffffffffffffffffffffffffffffffffffffffff82613ecf565b613f148683613ecf565b95508019841693508086168417925050509392505050565b5f819050919050565b5f613f4f613f4a613f4584613606565b613f2c565b613606565b9050919050565b5f819050919050565b613f6883613f35565b613f7c613f7482613f56565b848454613edb565b825550505050565b5f5f905090565b613f93613f84565b613f9e818484613f5f565b505050565b5b81811015613fc157613fb65f82613f8b565b600181019050613fa4565b5050565b601f82111561400657613fd781613eae565b613fe084613ec0565b81016020851015613fef578190505b614003613ffb85613ec0565b830182613fa3565b50505b505050565b5f82821c905092915050565b5f6140265f198460080261400b565b1980831691505092915050565b5f61403e8383614017565b9150826002028217905092915050565b6140588383613ea4565b67ffffffffffffffff811115614071576140706137af565b5b61407b8254613d33565b614086828285613fc5565b5f601f8311600181146140b3575f84156140a1578287013590505b6140ab8582614033565b865550614112565b601f1984166140c186613eae565b5f5b828110156140e8578489013582556001820191506020850194506020810190506140c3565b868310156141055784890135614101601f891682614017565b8355505b6001600288020188555050505b50505050505050565b5f61412582613606565b915061413083613606565b925082820190508082111561414857614147613d98565b5b92915050565b5f61415882613606565b915061416383613606565b925082820390508181111561417b5761417a613d98565b5b92915050565b5f81905092915050565b5f61419582613576565b61419f8185614181565b93506141af818560208601613590565b80840191505092915050565b7f2e6a736f6e000000000000000000000000000000000000000000000000000000815250565b5f6141ec828461418b565b91506141f7826141bb565b60058201915081905092915050565b61420f82613576565b67ffffffffffffffff811115614228576142276137af565b5b6142328254613d33565b61423d828285613fc5565b5f60209050601f83116001811461426e575f841561425c578287015190505b6142668582614033565b8655506142cd565b601f19841661427c86613eae565b5f5b828110156142a35784890151825560018201915060208501945060208101905061427e565b868310156142c057848901516142bc601f891682614017565b8355505b6001600288020188555050505b505050505050565b5f819050919050565b5f67ffffffffffffffff82169050919050565b5f61430b614306614301846142d5565b613f2c565b6142de565b9050919050565b61431b816142f1565b82525050565b5f6020820190506143345f830184614312565b92915050565b5f61435461434f61434a846134f7565b613f2c565b613606565b9050919050565b6143648161433a565b82525050565b5f60408201905061437d5f83018561435b565b61438a60208301846136ca565b9392505050565b61439a81613993565b81146143a4575f5ffd5b50565b5f815190506143b581614391565b92915050565b5f602082840312156143d0576143cf6133e2565b5b5f6143dd848285016143a7565b91505092915050565b5f81519050919050565b5f82825260208201905092915050565b5f61440a826143e6565b61441481856143f0565b9350614424818560208601613590565b61442d8161359e565b840191505092915050565b5f60808201905061444b5f830187613664565b6144586020830186613664565b61446560408301856136ca565b81810360608301526144778184614400565b905095945050505050565b5f8151905061449081613415565b92915050565b5f602082840312156144ab576144aa6133e2565b5b5f6144b884828501614482565b91505092915050565b5f6144cc828561418b565b91506144d8828461418b565b9150819050939250505056fea2646970667358221220afcc12909693eeff92b603316944852e42f7613de8906a499fc7cac974c516ef64736f6c634300081e0033","linkReferences":{}},"methodIdentifiers":{"MINT_INTERVAL()":"84e7e3d3","UPGRADE_INTERFACE_VERSION()":"ad3cb1cc","approve(address,uint256)":"095ea7b3","balanceOf(address)":"70a08231","deleteDefaultRoyalty()":"aa1b103f","getApproved(uint256)":"081812fc","i_maxSupply()":"646cfb6f","i_mintPrice()":"3161f19e","initialize(address,string,address,uint96)":"ce75f333","isApprovedForAll(address,address)":"e985e9c5","lastMint(address)":"adc20b1c","mint(uint256)":"a0712d68","name()":"06fdde03","owner()":"8da5cb5b","ownerOf(uint256)":"6352211e","paused()":"5c975abb","proxiableUUID()":"52d1902d","renounceOwnership()":"715018a6","royaltyInfo(uint256,uint256)":"2a55205a","safeTransferFrom(address,address,uint256)":"42842e0e","safeTransferFrom(address,address,uint256,bytes)":"b88d4fde","setApprovalForAll(address,bool)":"a22cb465","setBaseURI(string)":"55f804b3","setDefaultRoyalty(address,uint96)":"04634d8d","setSaleActive(bool)":"841718a6","supportsInterface(bytes4)":"01ffc9a7","symbol()":"95d89b41","tokenURI(uint256)":"c87b56dd","totalSupply()":"18160ddd","transferFrom(address,address,uint256)":"23b872dd","transferOwnership(address)":"f2fde38b","upgradeToAndCall(address,bytes)":"4f1ef286","version()":"54fd4d50","withdraw(address)":"51cff8d9"},"storageLayout":{"storage":[{"astId":61112,"contract":"src/MRTNFToken/MRTNFTokenV1.sol:MRTNFTokenV1","label":"baseTokenURI","offset":0,"slot":"0","type":"t_string_storage"},{"astId":61117,"contract":"src/MRTNFToken/MRTNFTokenV1.sol:MRTNFTokenV1","label":"lastMint","offset":0,"slot":"1","type":"t_mapping(t_address,t_uint256)"},{"astId":61121,"contract":"src/MRTNFToken/MRTNFTokenV1.sol:MRTNFTokenV1","label":"nextAvailableTokenId","offset":0,"slot":"2","type":"t_uint256"},{"astId":61126,"contract":"src/MRTNFToken/MRTNFTokenV1.sol:MRTNFTokenV1","label":"__gap","offset":0,"slot":"3","type":"t_array(t_uint256)45_storage"}],"types":{"t_address":{"encoding":"inplace","label":"address","numberOfBytes":"20"},"t_array(t_uint256)45_storage":{"encoding":"inplace","label":"uint256[45]","numberOfBytes":"1440","base":"t_uint256"},"t_mapping(t_address,t_uint256)":{"encoding":"mapping","key":"t_address","label":"mapping(address => uint256)","numberOfBytes":"32","value":"t_uint256"},"t_string_storage":{"encoding":"bytes","label":"string","numberOfBytes":"32"},"t_uint256":{"encoding":"inplace","label":"uint256","numberOfBytes":"32"}}},"id":95}