{"abi":[{"type":"function","name":"BASE_URI","inputs":[],"outputs":[{"name":"","type":"string","internalType":"string"}],"stateMutability":"view"},{"type":"function","name":"CAP","inputs":[],"outputs":[{"name":"","type":"uint96","internalType":"uint96"}],"stateMutability":"view"},{"type":"function","name":"DOMAIN_SEPARATOR","inputs":[],"outputs":[{"name":"","type":"bytes32","internalType":"bytes32"}],"stateMutability":"view"},{"type":"function","name":"INITIAL_MINT","inputs":[],"outputs":[{"name":"","type":"uint96","internalType":"uint96"}],"stateMutability":"view"},{"type":"function","name":"MINT_PRICE","inputs":[],"outputs":[{"name":"","type":"uint96","internalType":"uint96"}],"stateMutability":"view"},{"type":"function","name":"REWARD_AMOUNT","inputs":[],"outputs":[{"name":"","type":"uint8","internalType":"uint8"}],"stateMutability":"view"},{"type":"function","name":"REWARD_RATE","inputs":[],"outputs":[{"name":"","type":"uint256","internalType":"uint256"}],"stateMutability":"view"},{"type":"function","name":"ROYALTY_BPS","inputs":[],"outputs":[{"name":"","type":"uint96","internalType":"uint96"}],"stateMutability":"view"},{"type":"function","name":"TOKENS_PER_HOUR_WEI","inputs":[],"outputs":[{"name":"","type":"uint256","internalType":"uint256"}],"stateMutability":"view"},{"type":"function","name":"UPGRADE_INTERFACE_VERSION","inputs":[],"outputs":[{"name":"","type":"string","internalType":"string"}],"stateMutability":"view"},{"type":"function","name":"allowance","inputs":[{"name":"owner","type":"address","internalType":"address"},{"name":"spender","type":"address","internalType":"address"}],"outputs":[{"name":"","type":"uint256","internalType":"uint256"}],"stateMutability":"view"},{"type":"function","name":"approve","inputs":[{"name":"spender","type":"address","internalType":"address"},{"name":"value","type":"uint256","internalType":"uint256"}],"outputs":[{"name":"","type":"bool","internalType":"bool"}],"stateMutability":"nonpayable"},{"type":"function","name":"balanceOf","inputs":[{"name":"account","type":"address","internalType":"address"}],"outputs":[{"name":"","type":"uint256","internalType":"uint256"}],"stateMutability":"view"},{"type":"function","name":"cap","inputs":[],"outputs":[{"name":"","type":"uint256","internalType":"uint256"}],"stateMutability":"view"},{"type":"function","name":"decimals","inputs":[],"outputs":[{"name":"","type":"uint8","internalType":"uint8"}],"stateMutability":"view"},{"type":"function","name":"eip712Domain","inputs":[],"outputs":[{"name":"fields","type":"bytes1","internalType":"bytes1"},{"name":"name","type":"string","internalType":"string"},{"name":"version","type":"string","internalType":"string"},{"name":"chainId","type":"uint256","internalType":"uint256"},{"name":"verifyingContract","type":"address","internalType":"address"},{"name":"salt","type":"bytes32","internalType":"bytes32"},{"name":"extensions","type":"uint256[]","internalType":"uint256[]"}],"stateMutability":"view"},{"type":"function","name":"initialize","inputs":[{"name":"_initialOwner","type":"address","internalType":"address"}],"outputs":[],"stateMutability":"nonpayable"},{"type":"function","name":"mint","inputs":[{"name":"_to","type":"address","internalType":"address"},{"name":"_amount","type":"uint256","internalType":"uint256"}],"outputs":[],"stateMutability":"nonpayable"},{"type":"function","name":"name","inputs":[],"outputs":[{"name":"","type":"string","internalType":"string"}],"stateMutability":"view"},{"type":"function","name":"nonces","inputs":[{"name":"owner","type":"address","internalType":"address"}],"outputs":[{"name":"","type":"uint256","internalType":"uint256"}],"stateMutability":"view"},{"type":"function","name":"owner","inputs":[],"outputs":[{"name":"","type":"address","internalType":"address"}],"stateMutability":"view"},{"type":"function","name":"permit","inputs":[{"name":"owner","type":"address","internalType":"address"},{"name":"spender","type":"address","internalType":"address"},{"name":"value","type":"uint256","internalType":"uint256"},{"name":"deadline","type":"uint256","internalType":"uint256"},{"name":"v","type":"uint8","internalType":"uint8"},{"name":"r","type":"bytes32","internalType":"bytes32"},{"name":"s","type":"bytes32","internalType":"bytes32"}],"outputs":[],"stateMutability":"nonpayable"},{"type":"function","name":"proxiableUUID","inputs":[],"outputs":[{"name":"","type":"bytes32","internalType":"bytes32"}],"stateMutability":"view"},{"type":"function","name":"renounceOwnership","inputs":[],"outputs":[],"stateMutability":"nonpayable"},{"type":"function","name":"symbol","inputs":[],"outputs":[{"name":"","type":"string","internalType":"string"}],"stateMutability":"view"},{"type":"function","name":"totalSupply","inputs":[],"outputs":[{"name":"","type":"uint256","internalType":"uint256"}],"stateMutability":"view"},{"type":"function","name":"transfer","inputs":[{"name":"to","type":"address","internalType":"address"},{"name":"value","type":"uint256","internalType":"uint256"}],"outputs":[{"name":"","type":"bool","internalType":"bool"}],"stateMutability":"nonpayable"},{"type":"function","name":"transferFrom","inputs":[{"name":"from","type":"address","internalType":"address"},{"name":"to","type":"address","internalType":"address"},{"name":"value","type":"uint256","internalType":"uint256"}],"outputs":[{"name":"","type":"bool","internalType":"bool"}],"stateMutability":"nonpayable"},{"type":"function","name":"transferOwnership","inputs":[{"name":"newOwner","type":"address","internalType":"address"}],"outputs":[],"stateMutability":"nonpayable"},{"type":"function","name":"upgradeToAndCall","inputs":[{"name":"newImplementation","type":"address","internalType":"address"},{"name":"data","type":"bytes","internalType":"bytes"}],"outputs":[],"stateMutability":"payable"},{"type":"function","name":"version","inputs":[],"outputs":[{"name":"","type":"uint256","internalType":"uint256"}],"stateMutability":"pure"},{"type":"event","name":"Approval","inputs":[{"name":"owner","type":"address","indexed":true,"internalType":"address"},{"name":"spender","type":"address","indexed":true,"internalType":"address"},{"name":"value","type":"uint256","indexed":false,"internalType":"uint256"}],"anonymous":false},{"type":"event","name":"EIP712DomainChanged","inputs":[],"anonymous":false},{"type":"event","name":"Initialized","inputs":[{"name":"version","type":"uint64","indexed":false,"internalType":"uint64"}],"anonymous":false},{"type":"event","name":"OwnershipTransferred","inputs":[{"name":"previousOwner","type":"address","indexed":true,"internalType":"address"},{"name":"newOwner","type":"address","indexed":true,"internalType":"address"}],"anonymous":false},{"type":"event","name":"Transfer","inputs":[{"name":"from","type":"address","indexed":true,"internalType":"address"},{"name":"to","type":"address","indexed":true,"internalType":"address"},{"name":"value","type":"uint256","indexed":false,"internalType":"uint256"}],"anonymous":false},{"type":"event","name":"Upgraded","inputs":[{"name":"implementation","type":"address","indexed":true,"internalType":"address"}],"anonymous":false},{"type":"error","name":"AddressEmptyCode","inputs":[{"name":"target","type":"address","internalType":"address"}]},{"type":"error","name":"ECDSAInvalidSignature","inputs":[]},{"type":"error","name":"ECDSAInvalidSignatureLength","inputs":[{"name":"length","type":"uint256","internalType":"uint256"}]},{"type":"error","name":"ECDSAInvalidSignatureS","inputs":[{"name":"s","type":"bytes32","internalType":"bytes32"}]},{"type":"error","name":"ERC1967InvalidImplementation","inputs":[{"name":"implementation","type":"address","internalType":"address"}]},{"type":"error","name":"ERC1967NonPayable","inputs":[]},{"type":"error","name":"ERC20ExceededCap","inputs":[{"name":"increasedSupply","type":"uint256","internalType":"uint256"},{"name":"cap","type":"uint256","internalType":"uint256"}]},{"type":"error","name":"ERC20InsufficientAllowance","inputs":[{"name":"spender","type":"address","internalType":"address"},{"name":"allowance","type":"uint256","internalType":"uint256"},{"name":"needed","type":"uint256","internalType":"uint256"}]},{"type":"error","name":"ERC20InsufficientBalance","inputs":[{"name":"sender","type":"address","internalType":"address"},{"name":"balance","type":"uint256","internalType":"uint256"},{"name":"needed","type":"uint256","internalType":"uint256"}]},{"type":"error","name":"ERC20InvalidApprover","inputs":[{"name":"approver","type":"address","internalType":"address"}]},{"type":"error","name":"ERC20InvalidCap","inputs":[{"name":"cap","type":"uint256","internalType":"uint256"}]},{"type":"error","name":"ERC20InvalidReceiver","inputs":[{"name":"receiver","type":"address","internalType":"address"}]},{"type":"error","name":"ERC20InvalidSender","inputs":[{"name":"sender","type":"address","internalType":"address"}]},{"type":"error","name":"ERC20InvalidSpender","inputs":[{"name":"spender","type":"address","internalType":"address"}]},{"type":"error","name":"ERC2612ExpiredSignature","inputs":[{"name":"deadline","type":"uint256","internalType":"uint256"}]},{"type":"error","name":"ERC2612InvalidSigner","inputs":[{"name":"signer","type":"address","internalType":"address"},{"name":"owner","type":"address","internalType":"address"}]},{"type":"error","name":"FailedCall","inputs":[]},{"type":"error","name":"InvalidAccountNonce","inputs":[{"name":"account","type":"address","internalType":"address"},{"name":"currentNonce","type":"uint256","internalType":"uint256"}]},{"type":"error","name":"InvalidInitialization","inputs":[]},{"type":"error","name":"NotInitializing","inputs":[]},{"type":"error","name":"OwnableInvalidOwner","inputs":[{"name":"owner","type":"address","internalType":"address"}]},{"type":"error","name":"OwnableUnauthorizedAccount","inputs":[{"name":"account","type":"address","internalType":"address"}]},{"type":"error","name":"UUPSUnauthorizedCallContext","inputs":[]},{"type":"error","name":"UUPSUnsupportedProxiableUUID","inputs":[{"name":"slot","type":"bytes32","internalType":"bytes32"}]}],"bytecode":{"object":"0x60a06040523073ffffffffffffffffffffffffffffffffffffffff1660809073ffffffffffffffffffffffffffffffffffffffff168152503480156041575f5ffd5b506080516136446100685f395f81816113c60152818161141b01526115d501526136445ff3fe6080604052600436106101d7575f3560e01c8063715018a611610101578063c4d66de811610094578063dbddb26a11610063578063dbddb26a14610681578063dd62ed3e146106ab578063ec81b483146106e7578063f2fde38b14610711576101d7565b8063c4d66de8146105dd578063ca7df92c14610605578063cf8494421461062f578063d505accf14610659576101d7565b806395d89b41116100d057806395d89b4114610523578063a9059cbb1461054d578063ad3cb1cc14610589578063c002d23d146105b3576101d7565b8063715018a6146104775780637ecebe001461048d57806384b0196e146104c95780638da5cb5b146104f9576101d7565b806340c10f191161017957806354fd4d501161014857806354fd4d50146103bd5780635997bb37146103e75780635a1f8dfb1461041157806370a082311461043b576101d7565b806340c10f191461032557806349c657db1461034d5780634f1ef2861461037757806352d1902d14610393576101d7565b806323b872dd116101b557806323b872dd1461026b578063313ce567146102a7578063355274ea146102d15780633644e515146102fb576101d7565b806306fdde03146101db578063095ea7b31461020557806318160ddd14610241575b5f5ffd5b3480156101e6575f5ffd5b506101ef610739565b6040516101fc919061287b565b60405180910390f35b348015610210575f5ffd5b5061022b60048036038101906102269190612939565b6107d7565b6040516102389190612991565b60405180910390f35b34801561024c575f5ffd5b506102556107f9565b60405161026291906129b9565b60405180910390f35b348015610276575f5ffd5b50610291600480360381019061028c91906129d2565b610810565b60405161029e9190612991565b60405180910390f35b3480156102b2575f5ffd5b506102bb61083e565b6040516102c89190612a3d565b60405180910390f35b3480156102dc575f5ffd5b506102e5610846565b6040516102f291906129b9565b60405180910390f35b348015610306575f5ffd5b5061030f61085c565b60405161031c9190612a6e565b60405180910390f35b348015610330575f5ffd5b5061034b60048036038101906103469190612939565b61086a565b005b348015610358575f5ffd5b50610361610880565b60405161036e9190612aad565b60405180910390f35b610391600480360381019061038c9190612bf2565b610886565b005b34801561039e575f5ffd5b506103a76108a5565b6040516103b49190612a6e565b60405180910390f35b3480156103c8575f5ffd5b506103d16108d6565b6040516103de91906129b9565b60405180910390f35b3480156103f2575f5ffd5b506103fb6108de565b60405161040891906129b9565b60405180910390f35b34801561041c575f5ffd5b506104256108f7565b60405161043291906129b9565b60405180910390f35b348015610446575f5ffd5b50610461600480360381019061045c9190612c4c565b610903565b60405161046e91906129b9565b60405180910390f35b348015610482575f5ffd5b5061048b610956565b005b348015610498575f5ffd5b506104b360048036038101906104ae9190612c4c565b610969565b6040516104c091906129b9565b60405180910390f35b3480156104d4575f5ffd5b506104dd61097a565b6040516104f09796959493929190612d77565b60405180910390f35b348015610504575f5ffd5b5061050d610a83565b60405161051a9190612df9565b60405180910390f35b34801561052e575f5ffd5b50610537610ab8565b604051610544919061287b565b60405180910390f35b348015610558575f5ffd5b50610573600480360381019061056e9190612939565b610b56565b6040516105809190612991565b60405180910390f35b348015610594575f5ffd5b5061059d610b78565b6040516105aa919061287b565b60405180910390f35b3480156105be575f5ffd5b506105c7610bb1565b6040516105d49190612aad565b60405180910390f35b3480156105e8575f5ffd5b5061060360048036038101906105fe9190612c4c565b610bbc565b005b348015610610575f5ffd5b50610619610e31565b6040516106269190612aad565b60405180910390f35b34801561063a575f5ffd5b50610643610e3e565b6040516106509190612a3d565b60405180910390f35b348015610664575f5ffd5b5061067f600480360381019061067a9190612e66565b610e43565b005b34801561068c575f5ffd5b50610695610f88565b6040516106a2919061287b565b60405180910390f35b3480156106b6575f5ffd5b506106d160048036038101906106cc9190612f03565b610fa4565b6040516106de91906129b9565b60405180910390f35b3480156106f2575f5ffd5b506106fb611034565b6040516107089190612aad565b60405180910390f35b34801561071c575f5ffd5b5061073760048036038101906107329190612c4c565b611042565b005b60605f6107446110c6565b905080600301805461075590612f6e565b80601f016020809104026020016040519081016040528092919081815260200182805461078190612f6e565b80156107cc5780601f106107a3576101008083540402835291602001916107cc565b820191905f5260205f20905b8154815290600101906020018083116107af57829003601f168201915b505050505091505090565b5f5f6107e16110ed565b90506107ee8185856110f4565b600191505092915050565b5f5f6108036110c6565b9050806002015491505090565b5f5f61081a6110ed565b9050610827858285611106565b610832858585611199565b60019150509392505050565b5f6012905090565b5f5f610850611289565b9050805f015491505090565b5f6108656112b0565b905090565b6108726112be565b61087c8282611345565b5050565b6101f481565b61088e6113c4565b610897826114aa565b6108a182826114b5565b5050565b5f6108ae6115d3565b7f360894a13ba1a3210667c828492db98dca3e2076cc3735a920a3ca505d382bbc5f1b905090565b5f6001905090565b610e10671bc16d674ec800006108f49190612ff8565b81565b671bc16d674ec8000081565b5f5f61090d6110c6565b9050805f015f8473ffffffffffffffffffffffffffffffffffffffff1673ffffffffffffffffffffffffffffffffffffffff1681526020019081526020015f2054915050919050565b61095e6112be565b6109675f61165a565b565b5f6109738261172b565b9050919050565b5f6060805f5f5f60605f61098c61177e565b90505f5f1b815f01541480156109a757505f5f1b8160010154145b6109e6576040517f08c379a00000000000000000000000000000000000000000000000000000000081526004016109dd90613072565b60405180910390fd5b6109ee6117a5565b6109f6611843565b46305f5f1b5f67ffffffffffffffff811115610a1557610a14612ace565b5b604051908082528060200260200182016040528015610a435781602001602082028036833780820191505090505b507f0f0000000000000000000000000000000000000000000000000000000000000095949392919097509750975097509750975097505090919293949596565b5f5f610a8d6118e1565b9050805f015f9054906101000a900473ffffffffffffffffffffffffffffffffffffffff1691505090565b60605f610ac36110c6565b9050806004018054610ad490612f6e565b80601f0160208091040260200160405190810160405280929190818152602001828054610b0090612f6e565b8015610b4b5780601f10610b2257610100808354040283529160200191610b4b565b820191905f5260205f20905b815481529060010190602001808311610b2e57829003601f168201915b505050505091505090565b5f5f610b606110ed565b9050610b6d818585611199565b600191505092915050565b6040518060400160405280600581526020017f352e302e3000000000000000000000000000000000000000000000000000000081525081565b66038d7ea4c6800081565b5f610bc5611908565b90505f815f0160089054906101000a900460ff161590505f825f015f9054906101000a900467ffffffffffffffff1690505f5f8267ffffffffffffffff16148015610c0d5750825b90505f60018367ffffffffffffffff16148015610c4057505f3073ffffffffffffffffffffffffffffffffffffffff163b145b905081158015610c4e575080155b15610c85576040517ff92ee8a900000000000000000000000000000000000000000000000000000000815260040160405180910390fd5b6001855f015f6101000a81548167ffffffffffffffff021916908367ffffffffffffffff1602179055508315610cd2576001855f0160086101000a81548160ff0219169083151502179055505b610d466040518060400160405280600781526020017f4d52546f6b656e000000000000000000000000000000000000000000000000008152506040518060400160405280600381526020017f4d5254000000000000000000000000000000000000000000000000000000000081525061191b565b610d846040518060400160405280600781526020017f4d52546f6b656e00000000000000000000000000000000000000000000000000815250611931565b610da569d3c21bcecceda10000006bffffffffffffffffffffffff1661197b565b610dae8661198f565b610dcf86683635c9adc5dea000006bffffffffffffffffffffffff16611345565b8315610e29575f855f0160086101000a81548160ff0219169083151502179055507fc7f505b2f371ae2175ee4913f4499e1f2633a7b5936321eed1cdaeb6115181d26001604051610e2091906130e5565b60405180910390a15b505050505050565b683635c9adc5dea0000081565b600581565b83421115610e8857836040517f62791302000000000000000000000000000000000000000000000000000000008152600401610e7f91906129b9565b60405180910390fd5b5f7f6e71edae12b1b97f4d1f60370fef10105fa2faae0126114a169c64845d6126c9888888610eb68c6119a3565b89604051602001610ecc969594939291906130fe565b6040516020818303038152906040528051906020012090505f610eee82611a03565b90505f610efd82878787611a1c565b90508973ffffffffffffffffffffffffffffffffffffffff168173ffffffffffffffffffffffffffffffffffffffff1614610f7157808a6040517f4b800e46000000000000000000000000000000000000000000000000000000008152600401610f6892919061315d565b60405180910390fd5b610f7c8a8a8a6110f4565b50505050505050505050565b6040518060800160405280604381526020016135cc6043913981565b5f5f610fae6110c6565b9050806001015f8573ffffffffffffffffffffffffffffffffffffffff1673ffffffffffffffffffffffffffffffffffffffff1681526020019081526020015f205f8473ffffffffffffffffffffffffffffffffffffffff1673ffffffffffffffffffffffffffffffffffffffff1681526020019081526020015f205491505092915050565b69d3c21bcecceda100000081565b61104a6112be565b5f73ffffffffffffffffffffffffffffffffffffffff168173ffffffffffffffffffffffffffffffffffffffff16036110ba575f6040517f1e4fbdf70000000000000000000000000000000000000000000000000000000081526004016110b19190612df9565b60405180910390fd5b6110c38161165a565b50565b5f7f52c63247e1f47db19d5ce0460030c497f067ca4cebf71ba98eeadabe20bace00905090565b5f33905090565b6111018383836001611a4a565b505050565b5f6111118484610fa4565b90507fffffffffffffffffffffffffffffffffffffffffffffffffffffffffffffffff8110156111935781811015611184578281836040517ffb8f41b200000000000000000000000000000000000000000000000000000000815260040161117b93929190613184565b60405180910390fd5b61119284848484035f611a4a565b5b50505050565b5f73ffffffffffffffffffffffffffffffffffffffff168373ffffffffffffffffffffffffffffffffffffffff1603611209575f6040517f96c6fd1e0000000000000000000000000000000000000000000000000000000081526004016112009190612df9565b60405180910390fd5b5f73ffffffffffffffffffffffffffffffffffffffff168273ffffffffffffffffffffffffffffffffffffffff1603611279575f6040517fec442f050000000000000000000000000000000000000000000000000000000081526004016112709190612df9565b60405180910390fd5b611284838383611c27565b505050565b5f7f0f070392f17d5f958cc1ac31867dabecfc5c9758b4a419a200803226d7155d00905090565b5f6112b9611c37565b905090565b6112c66110ed565b73ffffffffffffffffffffffffffffffffffffffff166112e4610a83565b73ffffffffffffffffffffffffffffffffffffffff1614611343576113076110ed565b6040517f118cdaa700000000000000000000000000000000000000000000000000000000815260040161133a9190612df9565b60405180910390fd5b565b5f73ffffffffffffffffffffffffffffffffffffffff168273ffffffffffffffffffffffffffffffffffffffff16036113b5575f6040517fec442f050000000000000000000000000000000000000000000000000000000081526004016113ac9190612df9565b60405180910390fd5b6113c05f8383611c27565b5050565b7f000000000000000000000000000000000000000000000000000000000000000073ffffffffffffffffffffffffffffffffffffffff163073ffffffffffffffffffffffffffffffffffffffff16148061147157507f000000000000000000000000000000000000000000000000000000000000000073ffffffffffffffffffffffffffffffffffffffff16611458611c9a565b73ffffffffffffffffffffffffffffffffffffffff1614155b156114a8576040517fe07c8dba00000000000000000000000000000000000000000000000000000000815260040160405180910390fd5b565b6114b26112be565b50565b8173ffffffffffffffffffffffffffffffffffffffff166352d1902d6040518163ffffffff1660e01b8152600401602060405180830381865afa92505050801561151d57506040513d601f19601f8201168201806040525081019061151a91906131cd565b60015b61155e57816040517f4c9c8ce30000000000000000000000000000000000000000000000000000000081526004016115559190612df9565b60405180910390fd5b7f360894a13ba1a3210667c828492db98dca3e2076cc3735a920a3ca505d382bbc5f1b81146115c457806040517faa1d49a40000000000000000000000000000000000000000000000000000000081526004016115bb9190612a6e565b60405180910390fd5b6115ce8383611ced565b505050565b7f000000000000000000000000000000000000000000000000000000000000000073ffffffffffffffffffffffffffffffffffffffff163073ffffffffffffffffffffffffffffffffffffffff1614611658576040517fe07c8dba00000000000000000000000000000000000000000000000000000000815260040160405180910390fd5b565b5f6116636118e1565b90505f815f015f9054906101000a900473ffffffffffffffffffffffffffffffffffffffff16905082825f015f6101000a81548173ffffffffffffffffffffffffffffffffffffffff021916908373ffffffffffffffffffffffffffffffffffffffff1602179055508273ffffffffffffffffffffffffffffffffffffffff168173ffffffffffffffffffffffffffffffffffffffff167f8be0079c531659141344cd1fd0a4f28419497f9722a3daafe3b4186f6b6457e060405160405180910390a3505050565b5f5f611735611d5f565b9050805f015f8473ffffffffffffffffffffffffffffffffffffffff1673ffffffffffffffffffffffffffffffffffffffff1681526020019081526020015f2054915050919050565b5f7fa16a46d94261c7517cc8ff89f61c0ce93598e3c849801011dee649a6a557d100905090565b60605f6117b061177e565b90508060020180546117c190612f6e565b80601f01602080910402602001604051908101604052809291908181526020018280546117ed90612f6e565b80156118385780601f1061180f57610100808354040283529160200191611838565b820191905f5260205f20905b81548152906001019060200180831161181b57829003601f168201915b505050505091505090565b60605f61184e61177e565b905080600301805461185f90612f6e565b80601f016020809104026020016040519081016040528092919081815260200182805461188b90612f6e565b80156118d65780601f106118ad576101008083540402835291602001916118d6565b820191905f5260205f20905b8154815290600101906020018083116118b957829003601f168201915b505050505091505090565b5f7f9016d09d72d40fdae2fd8ceac6b6234c7706214fd39c1cd1e609a0528c199300905090565b5f5f611912611d86565b90508091505090565b611923611daf565b61192d8282611def565b5050565b611939611daf565b611978816040518060400160405280600181526020017f3100000000000000000000000000000000000000000000000000000000000000815250611e2b565b50565b611983611daf565b61198c81611e7c565b50565b611997611daf565b6119a081611edf565b50565b5f5f6119ad611d5f565b9050805f015f8473ffffffffffffffffffffffffffffffffffffffff1673ffffffffffffffffffffffffffffffffffffffff1681526020019081526020015f205f81548092919060010191905055915050919050565b5f611a15611a0f6112b0565b83611f63565b9050919050565b5f5f5f5f611a2c88888888611fa3565b925092509250611a3c828261208a565b829350505050949350505050565b5f611a536110c6565b90505f73ffffffffffffffffffffffffffffffffffffffff168573ffffffffffffffffffffffffffffffffffffffff1603611ac5575f6040517fe602df05000000000000000000000000000000000000000000000000000000008152600401611abc9190612df9565b60405180910390fd5b5f73ffffffffffffffffffffffffffffffffffffffff168473ffffffffffffffffffffffffffffffffffffffff1603611b35575f6040517f94280d62000000000000000000000000000000000000000000000000000000008152600401611b2c9190612df9565b60405180910390fd5b82816001015f8773ffffffffffffffffffffffffffffffffffffffff1673ffffffffffffffffffffffffffffffffffffffff1681526020019081526020015f205f8673ffffffffffffffffffffffffffffffffffffffff1673ffffffffffffffffffffffffffffffffffffffff1681526020019081526020015f20819055508115611c20578373ffffffffffffffffffffffffffffffffffffffff168573ffffffffffffffffffffffffffffffffffffffff167f8c5be1e5ebec7d5bd14f71427d1e84f3dd0314c0f7b2291e5b200ac8c7c3b92585604051611c1791906129b9565b60405180910390a35b5050505050565b611c328383836121ec565b505050565b5f7f8b73c3c69bb8fe3d512ecc4cf759cc79239f7b179b0ffacaa9a75d522b39400f611c6161228f565b611c69612305565b4630604051602001611c7f9594939291906131f8565b60405160208183030381529060405280519060200120905090565b5f611cc67f360894a13ba1a3210667c828492db98dca3e2076cc3735a920a3ca505d382bbc5f1b61237c565b5f015f9054906101000a900473ffffffffffffffffffffffffffffffffffffffff16905090565b611cf682612385565b8173ffffffffffffffffffffffffffffffffffffffff167fbc7cd75a20ee27fd9adebab32041f755214dbc6bffa90cc0225b39da2e5c2d3b60405160405180910390a25f81511115611d5257611d4c828261244e565b50611d5b565b611d5a61253f565b5b5050565b5f7f5ab42ced628888259c08ac98db1eb0cf702fc1501344311d8b100cd1bfe4bb00905090565b5f7ff0c57e16840df040f15088dc2f81fe391c3923bec73e23a9662efc9c229c6a005f1b905090565b611db761257b565b611ded576040517fd7e6bcf800000000000000000000000000000000000000000000000000000000815260040160405180910390fd5b565b611df7611daf565b5f611e006110c6565b905082816003019081611e1391906133e0565b5081816004019081611e2591906133e0565b50505050565b611e33611daf565b5f611e3c61177e565b905082816002019081611e4f91906133e0565b5081816003019081611e6191906133e0565b505f5f1b815f01819055505f5f1b8160010181905550505050565b611e84611daf565b5f611e8d611289565b90505f8203611ed3575f6040517f392e1e27000000000000000000000000000000000000000000000000000000008152600401611eca91906134e8565b60405180910390fd5b81815f01819055505050565b611ee7611daf565b5f73ffffffffffffffffffffffffffffffffffffffff168173ffffffffffffffffffffffffffffffffffffffff1603611f57575f6040517f1e4fbdf7000000000000000000000000000000000000000000000000000000008152600401611f4e9190612df9565b60405180910390fd5b611f608161165a565b50565b5f6040517f190100000000000000000000000000000000000000000000000000000000000081528360028201528260228201526042812091505092915050565b5f5f5f7f7fffffffffffffffffffffffffffffff5d576e7357a4501ddfe92f46681b20a0845f1c1115611fdf575f600385925092509250612080565b5f6001888888886040515f81526020016040526040516120029493929190613501565b6020604051602081039080840390855afa158015612022573d5f5f3e3d5ffd5b5050506020604051035190505f73ffffffffffffffffffffffffffffffffffffffff168173ffffffffffffffffffffffffffffffffffffffff1603612073575f60015f5f1b93509350935050612080565b805f5f5f1b935093509350505b9450945094915050565b5f600381111561209d5761209c613544565b5b8260038111156120b0576120af613544565b5b03156121e857600160038111156120ca576120c9613544565b5b8260038111156120dd576120dc613544565b5b03612114576040517ff645eedf00000000000000000000000000000000000000000000000000000000815260040160405180910390fd5b6002600381111561212857612127613544565b5b82600381111561213b5761213a613544565b5b0361217f57805f1c6040517ffce698f700000000000000000000000000000000000000000000000000000000815260040161217691906129b9565b60405180910390fd5b60038081111561219257612191613544565b5b8260038111156121a5576121a4613544565b5b036121e757806040517fd78bce0c0000000000000000000000000000000000000000000000000000000081526004016121de9190612a6e565b60405180910390fd5b5b5050565b6121f7838383612599565b5f73ffffffffffffffffffffffffffffffffffffffff168373ffffffffffffffffffffffffffffffffffffffff160361228a575f612233610846565b90505f61223e6107f9565b9050818111156122875780826040517f9e79f85400000000000000000000000000000000000000000000000000000000815260040161227e929190613571565b60405180910390fd5b50505b505050565b5f5f61229961177e565b90505f6122a46117a5565b90505f815111156122c057808051906020012092505050612302565b5f825f015490505f5f1b81146122db57809350505050612302565b7fc5d2460186f7233c927e7db2dcc703c0e500b653ca82273b7bfad8045d85a47093505050505b90565b5f5f61230f61177e565b90505f61231a611843565b90505f8151111561233657808051906020012092505050612379565b5f826001015490505f5f1b811461235257809350505050612379565b7fc5d2460186f7233c927e7db2dcc703c0e500b653ca82273b7bfad8045d85a47093505050505b90565b5f819050919050565b5f8173ffffffffffffffffffffffffffffffffffffffff163b036123e057806040517f4c9c8ce30000000000000000000000000000000000000000000000000000000081526004016123d79190612df9565b60405180910390fd5b8061240c7f360894a13ba1a3210667c828492db98dca3e2076cc3735a920a3ca505d382bbc5f1b61237c565b5f015f6101000a81548173ffffffffffffffffffffffffffffffffffffffff021916908373ffffffffffffffffffffffffffffffffffffffff16021790555050565b60605f61245b84846127c8565b905080801561249157505f61246e6127dc565b118061249057505f8473ffffffffffffffffffffffffffffffffffffffff163b115b5b156124a65761249e6127e3565b915050612539565b80156124e957836040517f9996b3150000000000000000000000000000000000000000000000000000000081526004016124e09190612df9565b60405180910390fd5b5f6124f26127dc565b111561250557612500612800565b612537565b6040517fd6bda27500000000000000000000000000000000000000000000000000000000815260040160405180910390fd5b505b92915050565b5f341115612579576040517fb398979f00000000000000000000000000000000000000000000000000000000815260040160405180910390fd5b565b5f612584611908565b5f0160089054906101000a900460ff16905090565b5f6125a26110c6565b90505f73ffffffffffffffffffffffffffffffffffffffff168473ffffffffffffffffffffffffffffffffffffffff16036125f65781816002015f8282546125ea9190613598565b925050819055506126c8565b5f815f015f8673ffffffffffffffffffffffffffffffffffffffff1673ffffffffffffffffffffffffffffffffffffffff1681526020019081526020015f2054905082811015612681578481846040517fe450d38c00000000000000000000000000000000000000000000000000000000815260040161267893929190613184565b60405180910390fd5b828103825f015f8773ffffffffffffffffffffffffffffffffffffffff1673ffffffffffffffffffffffffffffffffffffffff1681526020019081526020015f2081905550505b5f73ffffffffffffffffffffffffffffffffffffffff168373ffffffffffffffffffffffffffffffffffffffff16036127115781816002015f828254039250508190555061275d565b81815f015f8573ffffffffffffffffffffffffffffffffffffffff1673ffffffffffffffffffffffffffffffffffffffff1681526020019081526020015f205f82825401925050819055505b8273ffffffffffffffffffffffffffffffffffffffff168473ffffffffffffffffffffffffffffffffffffffff167fddf252ad1be2c89b69c2b068fc378daa952ba7f163c4a11628f55a4df523b3ef846040516127ba91906129b9565b60405180910390a350505050565b5f5f5f835160208501865af4905092915050565b5f3d905090565b606060405190503d81523d5f602083013e3d602001810160405290565b6040513d5f823e3d81fd5b5f81519050919050565b5f82825260208201905092915050565b8281835e5f83830152505050565b5f601f19601f8301169050919050565b5f61284d8261280b565b6128578185612815565b9350612867818560208601612825565b61287081612833565b840191505092915050565b5f6020820190508181035f8301526128938184612843565b905092915050565b5f604051905090565b5f5ffd5b5f5ffd5b5f73ffffffffffffffffffffffffffffffffffffffff82169050919050565b5f6128d5826128ac565b9050919050565b6128e5816128cb565b81146128ef575f5ffd5b50565b5f81359050612900816128dc565b92915050565b5f819050919050565b61291881612906565b8114612922575f5ffd5b50565b5f813590506129338161290f565b92915050565b5f5f6040838503121561294f5761294e6128a4565b5b5f61295c858286016128f2565b925050602061296d85828601612925565b9150509250929050565b5f8115159050919050565b61298b81612977565b82525050565b5f6020820190506129a45f830184612982565b92915050565b6129b381612906565b82525050565b5f6020820190506129cc5f8301846129aa565b92915050565b5f5f5f606084860312156129e9576129e86128a4565b5b5f6129f6868287016128f2565b9350506020612a07868287016128f2565b9250506040612a1886828701612925565b9150509250925092565b5f60ff82169050919050565b612a3781612a22565b82525050565b5f602082019050612a505f830184612a2e565b92915050565b5f819050919050565b612a6881612a56565b82525050565b5f602082019050612a815f830184612a5f565b92915050565b5f6bffffffffffffffffffffffff82169050919050565b612aa781612a87565b82525050565b5f602082019050612ac05f830184612a9e565b92915050565b5f5ffd5b5f5ffd5b7f4e487b71000000000000000000000000000000000000000000000000000000005f52604160045260245ffd5b612b0482612833565b810181811067ffffffffffffffff82111715612b2357612b22612ace565b5b80604052505050565b5f612b3561289b565b9050612b418282612afb565b919050565b5f67ffffffffffffffff821115612b6057612b5f612ace565b5b612b6982612833565b9050602081019050919050565b828183375f83830152505050565b5f612b96612b9184612b46565b612b2c565b905082815260208101848484011115612bb257612bb1612aca565b5b612bbd848285612b76565b509392505050565b5f82601f830112612bd957612bd8612ac6565b5b8135612be9848260208601612b84565b91505092915050565b5f5f60408385031215612c0857612c076128a4565b5b5f612c15858286016128f2565b925050602083013567ffffffffffffffff811115612c3657612c356128a8565b5b612c4285828601612bc5565b9150509250929050565b5f60208284031215612c6157612c606128a4565b5b5f612c6e848285016128f2565b91505092915050565b5f7fff0000000000000000000000000000000000000000000000000000000000000082169050919050565b612cab81612c77565b82525050565b612cba816128cb565b82525050565b5f81519050919050565b5f82825260208201905092915050565b5f819050602082019050919050565b612cf281612906565b82525050565b5f612d038383612ce9565b60208301905092915050565b5f602082019050919050565b5f612d2582612cc0565b612d2f8185612cca565b9350612d3a83612cda565b805f5b83811015612d6a578151612d518882612cf8565b9750612d5c83612d0f565b925050600181019050612d3d565b5085935050505092915050565b5f60e082019050612d8a5f83018a612ca2565b8181036020830152612d9c8189612843565b90508181036040830152612db08188612843565b9050612dbf60608301876129aa565b612dcc6080830186612cb1565b612dd960a0830185612a5f565b81810360c0830152612deb8184612d1b565b905098975050505050505050565b5f602082019050612e0c5f830184612cb1565b92915050565b612e1b81612a22565b8114612e25575f5ffd5b50565b5f81359050612e3681612e12565b92915050565b612e4581612a56565b8114612e4f575f5ffd5b50565b5f81359050612e6081612e3c565b92915050565b5f5f5f5f5f5f5f60e0888a031215612e8157612e806128a4565b5b5f612e8e8a828b016128f2565b9750506020612e9f8a828b016128f2565b9650506040612eb08a828b01612925565b9550506060612ec18a828b01612925565b9450506080612ed28a828b01612e28565b93505060a0612ee38a828b01612e52565b92505060c0612ef48a828b01612e52565b91505092959891949750929550565b5f5f60408385031215612f1957612f186128a4565b5b5f612f26858286016128f2565b9250506020612f37858286016128f2565b9150509250929050565b7f4e487b71000000000000000000000000000000000000000000000000000000005f52602260045260245ffd5b5f6002820490506001821680612f8557607f821691505b602082108103612f9857612f97612f41565b5b50919050565b7f4e487b71000000000000000000000000000000000000000000000000000000005f52601260045260245ffd5b7f4e487b71000000000000000000000000000000000000000000000000000000005f52601160045260245ffd5b5f61300282612906565b915061300d83612906565b92508261301d5761301c612f9e565b5b828204905092915050565b7f4549503731323a20556e696e697469616c697a656400000000000000000000005f82015250565b5f61305c601583612815565b915061306782613028565b602082019050919050565b5f6020820190508181035f83015261308981613050565b9050919050565b5f819050919050565b5f67ffffffffffffffff82169050919050565b5f819050919050565b5f6130cf6130ca6130c584613090565b6130ac565b613099565b9050919050565b6130df816130b5565b82525050565b5f6020820190506130f85f8301846130d6565b92915050565b5f60c0820190506131115f830189612a5f565b61311e6020830188612cb1565b61312b6040830187612cb1565b61313860608301866129aa565b61314560808301856129aa565b61315260a08301846129aa565b979650505050505050565b5f6040820190506131705f830185612cb1565b61317d6020830184612cb1565b9392505050565b5f6060820190506131975f830186612cb1565b6131a460208301856129aa565b6131b160408301846129aa565b949350505050565b5f815190506131c781612e3c565b92915050565b5f602082840312156131e2576131e16128a4565b5b5f6131ef848285016131b9565b91505092915050565b5f60a08201905061320b5f830188612a5f565b6132186020830187612a5f565b6132256040830186612a5f565b61323260608301856129aa565b61323f6080830184612cb1565b9695505050505050565b5f819050815f5260205f209050919050565b5f6020601f8301049050919050565b5f82821b905092915050565b5f600883026132a57fffffffffffffffffffffffffffffffffffffffffffffffffffffffffffffffff8261326a565b6132af868361326a565b95508019841693508086168417925050509392505050565b5f6132e16132dc6132d784612906565b6130ac565b612906565b9050919050565b5f819050919050565b6132fa836132c7565b61330e613306826132e8565b848454613276565b825550505050565b5f5f905090565b613325613316565b6133308184846132f1565b505050565b5b81811015613353576133485f8261331d565b600181019050613336565b5050565b601f8211156133985761336981613249565b6133728461325b565b81016020851015613381578190505b61339561338d8561325b565b830182613335565b50505b505050565b5f82821c905092915050565b5f6133b85f198460080261339d565b1980831691505092915050565b5f6133d083836133a9565b9150826002028217905092915050565b6133e98261280b565b67ffffffffffffffff81111561340257613401612ace565b5b61340c8254612f6e565b613417828285613357565b5f60209050601f831160018114613448575f8415613436578287015190505b61344085826133c5565b8655506134a7565b601f19841661345686613249565b5f5b8281101561347d57848901518255600182019150602085019450602081019050613458565b8683101561349a5784890151613496601f8916826133a9565b8355505b6001600288020188555050505b505050505050565b5f819050919050565b5f6134d26134cd6134c8846134af565b6130ac565b612906565b9050919050565b6134e2816134b8565b82525050565b5f6020820190506134fb5f8301846134d9565b92915050565b5f6080820190506135145f830187612a5f565b6135216020830186612a2e565b61352e6040830185612a5f565b61353b6060830184612a5f565b95945050505050565b7f4e487b71000000000000000000000000000000000000000000000000000000005f52602160045260245ffd5b5f6040820190506135845f8301856129aa565b61359160208301846129aa565b9392505050565b5f6135a282612906565b91506135ad83612906565b92508282019050808211156135c5576135c4612fcb565b5b9291505056fe697066733a2f2f626166796265696174666a61657966753261357064663266353336713776733632706676366533336c776b3579636b697772356e747761697673342fa2646970667358221220bb5579effd4d93d4316e8ffdba53e9da1a26ff19a8e582bdb9d09acb507cf89464736f6c634300081e0033","linkReferences":{}},"methodIdentifiers":{"BASE_URI()":"dbddb26a","CAP()":"ec81b483","DOMAIN_SEPARATOR()":"3644e515","INITIAL_MINT()":"ca7df92c","MINT_PRICE()":"c002d23d","REWARD_AMOUNT()":"cf849442","REWARD_RATE()":"5997bb37","ROYALTY_BPS()":"49c657db","TOKENS_PER_HOUR_WEI()":"5a1f8dfb","UPGRADE_INTERFACE_VERSION()":"ad3cb1cc","allowance(address,address)":"dd62ed3e","approve(address,uint256)":"095ea7b3","balanceOf(address)":"70a08231","cap()":"355274ea","decimals()":"313ce567","eip712Domain()":"84b0196e","initialize(address)":"c4d66de8","mint(address,uint256)":"40c10f19","name()":"06fdde03","nonces(address)":"7ecebe00","owner()":"8da5cb5b","permit(address,address,uint256,uint256,uint8,bytes32,bytes32)":"d505accf","proxiableUUID()":"52d1902d","renounceOwnership()":"715018a6","symbol()":"95d89b41","totalSupply()":"18160ddd","transfer(address,uint256)":"a9059cbb","transferFrom(address,address,uint256)":"23b872dd","transferOwnership(address)":"f2fde38b","upgradeToAndCall(address,bytes)":"4f1ef286","version()":"54fd4d50"},"storageLayout":{"storage":[{"astId":61609,"contract":"src/MRToken/MRTokenV1.sol:MRTokenV1","label":"__gap","offset":0,"slot":"0","type":"t_array(t_uint256)50_storage"}],"types":{"t_array(t_uint256)50_storage":{"encoding":"inplace","label":"uint256[50]","numberOfBytes":"1600","base":"t_uint256"},"t_uint256":{"encoding":"inplace","label":"uint256","numberOfBytes":"32"}}},"id":97}