{"abi":[{"type":"constructor","inputs":[{"name":"_token","type":"address","internalType":"contract IERC20"}],"stateMutability":"nonpayable"},{"type":"function","name":"UPGRADE_INTERFACE_VERSION","inputs":[],"outputs":[{"name":"","type":"string","internalType":"string"}],"stateMutability":"view"},{"type":"function","name":"balanceOf","inputs":[{"name":"","type":"address","internalType":"address"}],"outputs":[{"name":"","type":"uint256","internalType":"uint256"}],"stateMutability":"view"},{"type":"function","name":"earned","inputs":[{"name":"account","type":"address","internalType":"address"}],"outputs":[{"name":"","type":"uint256","internalType":"uint256"}],"stateMutability":"view"},{"type":"function","name":"exit","inputs":[],"outputs":[],"stateMutability":"nonpayable"},{"type":"function","name":"getReward","inputs":[],"outputs":[],"stateMutability":"nonpayable"},{"type":"function","name":"i_stakingToken","inputs":[],"outputs":[{"name":"","type":"address","internalType":"contract IERC20"}],"stateMutability":"view"},{"type":"function","name":"initialize","inputs":[{"name":"initialOwner","type":"address","internalType":"address"},{"name":"_rewardRate","type":"uint256","internalType":"uint256"}],"outputs":[],"stateMutability":"nonpayable"},{"type":"function","name":"lastUpdateTime","inputs":[],"outputs":[{"name":"","type":"uint256","internalType":"uint256"}],"stateMutability":"view"},{"type":"function","name":"owner","inputs":[],"outputs":[{"name":"","type":"address","internalType":"address"}],"stateMutability":"view"},{"type":"function","name":"proxiableUUID","inputs":[],"outputs":[{"name":"","type":"bytes32","internalType":"bytes32"}],"stateMutability":"view"},{"type":"function","name":"renounceOwnership","inputs":[],"outputs":[],"stateMutability":"nonpayable"},{"type":"function","name":"rescue","inputs":[{"name":"token","type":"address","internalType":"contract IERC20"},{"name":"to","type":"address","internalType":"address"},{"name":"amount","type":"uint256","internalType":"uint256"}],"outputs":[],"stateMutability":"nonpayable"},{"type":"function","name":"rewardPerToken","inputs":[],"outputs":[{"name":"","type":"uint256","internalType":"uint256"}],"stateMutability":"view"},{"type":"function","name":"rewardPerTokenStored","inputs":[],"outputs":[{"name":"","type":"uint256","internalType":"uint256"}],"stateMutability":"view"},{"type":"function","name":"rewardRate","inputs":[],"outputs":[{"name":"","type":"uint256","internalType":"uint256"}],"stateMutability":"view"},{"type":"function","name":"rewards","inputs":[{"name":"","type":"address","internalType":"address"}],"outputs":[{"name":"","type":"uint256","internalType":"uint256"}],"stateMutability":"view"},{"type":"function","name":"setRewardRate","inputs":[{"name":"_rate","type":"uint256","internalType":"uint256"}],"outputs":[],"stateMutability":"nonpayable"},{"type":"function","name":"stake","inputs":[{"name":"amount","type":"uint256","internalType":"uint256"}],"outputs":[],"stateMutability":"nonpayable"},{"type":"function","name":"totalSupply","inputs":[],"outputs":[{"name":"","type":"uint256","internalType":"uint256"}],"stateMutability":"view"},{"type":"function","name":"transferOwnership","inputs":[{"name":"newOwner","type":"address","internalType":"address"}],"outputs":[],"stateMutability":"nonpayable"},{"type":"function","name":"updateRewardsOnly","inputs":[],"outputs":[],"stateMutability":"nonpayable"},{"type":"function","name":"upgradeToAndCall","inputs":[{"name":"newImplementation","type":"address","internalType":"address"},{"name":"data","type":"bytes","internalType":"bytes"}],"outputs":[],"stateMutability":"payable"},{"type":"function","name":"userRewardPerTokenPaid","inputs":[{"name":"","type":"address","internalType":"address"}],"outputs":[{"name":"","type":"uint256","internalType":"uint256"}],"stateMutability":"view"},{"type":"function","name":"version","inputs":[],"outputs":[{"name":"","type":"uint256","internalType":"uint256"}],"stateMutability":"pure"},{"type":"function","name":"withdraw","inputs":[{"name":"amount","type":"uint256","internalType":"uint256"}],"outputs":[],"stateMutability":"nonpayable"},{"type":"event","name":"Initialized","inputs":[{"name":"version","type":"uint64","indexed":false,"internalType":"uint64"}],"anonymous":false},{"type":"event","name":"OwnershipTransferred","inputs":[{"name":"previousOwner","type":"address","indexed":true,"internalType":"address"},{"name":"newOwner","type":"address","indexed":true,"internalType":"address"}],"anonymous":false},{"type":"event","name":"RewardPaid","inputs":[{"name":"user","type":"address","indexed":true,"internalType":"address"},{"name":"reward","type":"uint256","indexed":false,"internalType":"uint256"}],"anonymous":false},{"type":"event","name":"RewardRateSet","inputs":[{"name":"rewardRate","type":"uint256","indexed":false,"internalType":"uint256"}],"anonymous":false},{"type":"event","name":"Staked","inputs":[{"name":"user","type":"address","indexed":true,"internalType":"address"},{"name":"amount","type":"uint256","indexed":false,"internalType":"uint256"}],"anonymous":false},{"type":"event","name":"Upgraded","inputs":[{"name":"implementation","type":"address","indexed":true,"internalType":"address"}],"anonymous":false},{"type":"event","name":"Withdrawn","inputs":[{"name":"user","type":"address","indexed":true,"internalType":"address"},{"name":"amount","type":"uint256","indexed":false,"internalType":"uint256"}],"anonymous":false},{"type":"error","name":"AddressEmptyCode","inputs":[{"name":"target","type":"address","internalType":"address"}]},{"type":"error","name":"ERC1967InvalidImplementation","inputs":[{"name":"implementation","type":"address","internalType":"address"}]},{"type":"error","name":"ERC1967NonPayable","inputs":[]},{"type":"error","name":"FailedCall","inputs":[]},{"type":"error","name":"InvalidInitialization","inputs":[]},{"type":"error","name":"NotInitializing","inputs":[]},{"type":"error","name":"OwnableInvalidOwner","inputs":[{"name":"owner","type":"address","internalType":"address"}]},{"type":"error","name":"OwnableUnauthorizedAccount","inputs":[{"name":"account","type":"address","internalType":"address"}]},{"type":"error","name":"ReentrancyGuardReentrantCall","inputs":[]},{"type":"error","name":"SafeERC20FailedOperation","inputs":[{"name":"token","type":"address","internalType":"address"}]},{"type":"error","name":"StakingVault__AmountZero","inputs":[]},{"type":"error","name":"StakingVault__InsufficientStake","inputs":[]},{"type":"error","name":"StakingVault__NoStakingToken","inputs":[]},{"type":"error","name":"UUPSUnauthorizedCallContext","inputs":[]},{"type":"error","name":"UUPSUnsupportedProxiableUUID","inputs":[{"name":"slot","type":"bytes32","internalType":"bytes32"}]}],"bytecode":{"object":"0x60c06040523073ffffffffffffffffffffffffffffffffffffffff1660809073ffffffffffffffffffffffffffffffffffffffff16815250348015610042575f5ffd5b506040516125c63803806125c6833981810160405281019061006491906102b1565b60016100826100776100d060201b60201c565b6100f960201b60201c565b5f018190555061009661010260201b60201c565b8073ffffffffffffffffffffffffffffffffffffffff1660a08173ffffffffffffffffffffffffffffffffffffffff168152505050610317565b5f7f9b779b17422d0df92223018b32b4d1fa46e071723d6817e2486d003becc55f005f1b905090565b5f819050919050565b5f61011161020060201b60201c565b9050805f0160089054906101000a900460ff161561015b576040517ff92ee8a900000000000000000000000000000000000000000000000000000000815260040160405180910390fd5b67ffffffffffffffff8016815f015f9054906101000a900467ffffffffffffffff1667ffffffffffffffff16146101fd5767ffffffffffffffff815f015f6101000a81548167ffffffffffffffff021916908367ffffffffffffffff1602179055507fc7f505b2f371ae2175ee4913f4499e1f2633a7b5936321eed1cdaeb6115181d267ffffffffffffffff6040516101f491906102fe565b60405180910390a15b50565b5f5f61021061021960201b60201c565b90508091505090565b5f7ff0c57e16840df040f15088dc2f81fe391c3923bec73e23a9662efc9c229c6a005f1b905090565b5f5ffd5b5f73ffffffffffffffffffffffffffffffffffffffff82169050919050565b5f61026f82610246565b9050919050565b5f61028082610265565b9050919050565b61029081610276565b811461029a575f5ffd5b50565b5f815190506102ab81610287565b92915050565b5f602082840312156102c6576102c5610242565b5b5f6102d38482850161029d565b91505092915050565b5f67ffffffffffffffff82169050919050565b6102f8816102dc565b82525050565b5f6020820190506103115f8301846102ef565b92915050565b60805160a0516122646103625f395f818161068001528181610867015281816109a901528181610c280152610f1001525f81816111f80152818161124d015261140701526122645ff3fe608060405260043610610164575f3560e01c80638b876347116100d0578063cd3daf9d11610089578063df136d6511610063578063df136d65146104ce578063e2c44502146104f8578063e9fad8ee14610522578063f2fde38b1461053857610164565b8063cd3daf9d14610466578063cd6dc68714610490578063dbb341a6146104b857610164565b80638b8763471461035c5780638da5cb5b146103985780639e447fc6146103c2578063a694fc3a146103ea578063ad3cb1cc14610412578063c8f33c911461043c57610164565b80634f1ef286116101225780634f1ef2861461027057806352d1902d1461028c57806354fd4d50146102b657806370a08231146102e0578063715018a61461031c5780637b0a47ee1461033257610164565b80628cc262146101685780630700037d146101a457806318160ddd146101e057806320ff430b1461020a5780632e1a7d4d146102325780633d18b9121461025a575b5f5ffd5b348015610173575f5ffd5b5061018e60048036038101906101899190611be6565b610560565b60405161019b9190611c29565b60405180910390f35b3480156101af575f5ffd5b506101ca60048036038101906101c59190611be6565b61065b565b6040516101d79190611c29565b60405180910390f35b3480156101eb575f5ffd5b506101f4610670565b6040516102019190611c29565b60405180910390f35b348015610215575f5ffd5b50610230600480360381019061022b9190611ca7565b610676565b005b34801561023d575f5ffd5b5061025860048036038101906102539190611cf7565b610733565b005b348015610265575f5ffd5b5061026e610905565b005b61028a60048036038101906102859190611e5e565b610a48565b005b348015610297575f5ffd5b506102a0610a67565b6040516102ad9190611ed0565b60405180910390f35b3480156102c1575f5ffd5b506102ca610a98565b6040516102d79190611c29565b60405180910390f35b3480156102eb575f5ffd5b5061030660048036038101906103019190611be6565b610aa0565b6040516103139190611c29565b60405180910390f35b348015610327575f5ffd5b50610330610ab5565b005b34801561033d575f5ffd5b50610346610ac8565b6040516103539190611c29565b60405180910390f35b348015610367575f5ffd5b50610382600480360381019061037d9190611be6565b610acd565b60405161038f9190611c29565b60405180910390f35b3480156103a3575f5ffd5b506103ac610ae2565b6040516103b99190611ef8565b60405180910390f35b3480156103cd575f5ffd5b506103e860048036038101906103e39190611cf7565b610b17565b005b3480156103f5575f5ffd5b50610410600480360381019061040b9190611cf7565b610b6a565b005b34801561041d575f5ffd5b50610426610cc7565b6040516104339190611f71565b60405180910390f35b348015610447575f5ffd5b50610450610d00565b60405161045d9190611c29565b60405180910390f35b348015610471575f5ffd5b5061047a610d06565b6040516104879190611c29565b60405180910390f35b34801561049b575f5ffd5b506104b660048036038101906104b19190611f91565b610d6c565b005b3480156104c3575f5ffd5b506104cc610efb565b005b3480156104d9575f5ffd5b506104e2610f08565b6040516104ef9190611c29565b60405180910390f35b348015610503575f5ffd5b5061050c610f0e565b604051610519919061202a565b60405180910390f35b34801561052d575f5ffd5b50610536610f32565b005b348015610543575f5ffd5b5061055e60048036038101906105599190611be6565b610f82565b005b5f60065f8373ffffffffffffffffffffffffffffffffffffffff1673ffffffffffffffffffffffffffffffffffffffff1681526020019081526020015f2054670de0b6b3a764000060055f8573ffffffffffffffffffffffffffffffffffffffff1673ffffffffffffffffffffffffffffffffffffffff1681526020019081526020015f20546105ee610d06565b6105f89190612070565b60045f8673ffffffffffffffffffffffffffffffffffffffff1673ffffffffffffffffffffffffffffffffffffffff1681526020019081526020015f205461064091906120a3565b61064a9190612111565b6106549190612141565b9050919050565b6006602052805f5260405f205f915090505481565b60035481565b61067e611006565b7f000000000000000000000000000000000000000000000000000000000000000073ffffffffffffffffffffffffffffffffffffffff168373ffffffffffffffffffffffffffffffffffffffff1603610703576040517fabebafcf00000000000000000000000000000000000000000000000000000000815260040160405180910390fd5b61072e82828573ffffffffffffffffffffffffffffffffffffffff1661108d9092919063ffffffff16565b505050565b61073b6110e0565b3361074581611102565b5f821161077e576040517fce18ac4300000000000000000000000000000000000000000000000000000000815260040160405180910390fd5b8160045f3373ffffffffffffffffffffffffffffffffffffffff1673ffffffffffffffffffffffffffffffffffffffff1681526020019081526020015f205410156107f5576040517fef517ba800000000000000000000000000000000000000000000000000000000815260040160405180910390fd5b8160035f8282546108069190612070565b925050819055508160045f3373ffffffffffffffffffffffffffffffffffffffff1673ffffffffffffffffffffffffffffffffffffffff1681526020019081526020015f205f8282546108599190612070565b925050819055506108ab33837f000000000000000000000000000000000000000000000000000000000000000073ffffffffffffffffffffffffffffffffffffffff1661108d9092919063ffffffff16565b3373ffffffffffffffffffffffffffffffffffffffff167f7084f5476618d8e60b11ef0d7d3f06914655adb8793e28ff7f018d4c76d505d5836040516108f19190611c29565b60405180910390a2506109026111dc565b50565b61090d6110e0565b3361091781611102565b5f60065f3373ffffffffffffffffffffffffffffffffffffffff1673ffffffffffffffffffffffffffffffffffffffff1681526020019081526020015f205490505f811115610a3c575f60065f3373ffffffffffffffffffffffffffffffffffffffff1673ffffffffffffffffffffffffffffffffffffffff1681526020019081526020015f20819055506109ed33827f000000000000000000000000000000000000000000000000000000000000000073ffffffffffffffffffffffffffffffffffffffff1661108d9092919063ffffffff16565b3373ffffffffffffffffffffffffffffffffffffffff167fe2403640ba68fed3a2f88b7557551d1993f84b99bb10ff833f0cf8db0c5e048682604051610a339190611c29565b60405180910390a25b5050610a466111dc565b565b610a506111f6565b610a59826112dc565b610a6382826112e7565b5050565b5f610a70611405565b7f360894a13ba1a3210667c828492db98dca3e2076cc3735a920a3ca505d382bbc5f1b905090565b5f6001905090565b6004602052805f5260405f205f915090505481565b610abd611006565b610ac65f61148c565b565b5f5481565b6005602052805f5260405f205f915090505481565b5f5f610aec61155d565b9050805f015f9054906101000a900473ffffffffffffffffffffffffffffffffffffffff1691505090565b610b1f611006565b5f610b2981611102565b815f819055507f8cbfafc8e0d9c5c81401c4b9c6e7d201198adc7eb8f8f1556c195ecd4c0a0e7b82604051610b5e9190611c29565b60405180910390a15050565b610b726110e0565b33610b7c81611102565b5f8211610bb5576040517fce18ac4300000000000000000000000000000000000000000000000000000000815260040160405180910390fd5b8160035f828254610bc69190612141565b925050819055508160045f3373ffffffffffffffffffffffffffffffffffffffff1673ffffffffffffffffffffffffffffffffffffffff1681526020019081526020015f205f828254610c199190612141565b92505081905550610c6d3330847f000000000000000000000000000000000000000000000000000000000000000073ffffffffffffffffffffffffffffffffffffffff16611584909392919063ffffffff16565b3373ffffffffffffffffffffffffffffffffffffffff167f9e71bc8eea02a63969f509818f2dafb9254532904319f9dbda79b67bd34a5f3d83604051610cb39190611c29565b60405180910390a250610cc46111dc565b50565b6040518060400160405280600581526020017f352e302e3000000000000000000000000000000000000000000000000000000081525081565b60015481565b5f5f60035403610d1a576002549050610d69565b5f60015442610d299190612070565b9050600354670de0b6b3a76400005f5483610d4491906120a3565b610d4e91906120a3565b610d589190612111565b600254610d659190612141565b9150505b90565b5f610d756115d9565b90505f815f0160089054906101000a900460ff161590505f825f015f9054906101000a900467ffffffffffffffff1690505f5f8267ffffffffffffffff16148015610dbd5750825b90505f60018367ffffffffffffffff16148015610df057505f3073ffffffffffffffffffffffffffffffffffffffff163b145b905081158015610dfe575080155b15610e35576040517ff92ee8a900000000000000000000000000000000000000000000000000000000815260040160405180910390fd5b6001855f015f6101000a81548167ffffffffffffffff021916908367ffffffffffffffff1602179055508315610e82576001855f0160086101000a81548160ff0219169083151502179055505b610e8b876115ec565b855f81905550426001819055508315610ef2575f855f0160086101000a81548160ff0219169083151502179055507fc7f505b2f371ae2175ee4913f4499e1f2633a7b5936321eed1cdaeb6115181d26001604051610ee991906121c0565b60405180910390a15b50505050505050565b33610f0581611102565b50565b60025481565b7f000000000000000000000000000000000000000000000000000000000000000081565b610f7860045f3373ffffffffffffffffffffffffffffffffffffffff1673ffffffffffffffffffffffffffffffffffffffff1681526020019081526020015f2054610733565b610f80610905565b565b610f8a611006565b5f73ffffffffffffffffffffffffffffffffffffffff168173ffffffffffffffffffffffffffffffffffffffff1603610ffa575f6040517f1e4fbdf7000000000000000000000000000000000000000000000000000000008152600401610ff19190611ef8565b60405180910390fd5b6110038161148c565b50565b61100e611600565b73ffffffffffffffffffffffffffffffffffffffff1661102c610ae2565b73ffffffffffffffffffffffffffffffffffffffff161461108b5761104f611600565b6040517f118cdaa70000000000000000000000000000000000000000000000000000000081526004016110829190611ef8565b60405180910390fd5b565b61109a8383836001611607565b6110db57826040517f5274afe70000000000000000000000000000000000000000000000000000000081526004016110d29190611ef8565b60405180910390fd5b505050565b6110e8611669565b60026110fa6110f56116aa565b6116d3565b5f0181905550565b61110a610d06565b600281905550426001819055505f73ffffffffffffffffffffffffffffffffffffffff168173ffffffffffffffffffffffffffffffffffffffff16146111d95761115381610560565b60065f8373ffffffffffffffffffffffffffffffffffffffff1673ffffffffffffffffffffffffffffffffffffffff1681526020019081526020015f208190555060025460055f8373ffffffffffffffffffffffffffffffffffffffff1673ffffffffffffffffffffffffffffffffffffffff1681526020019081526020015f20819055505b50565b60016111ee6111e96116aa565b6116d3565b5f0181905550565b7f000000000000000000000000000000000000000000000000000000000000000073ffffffffffffffffffffffffffffffffffffffff163073ffffffffffffffffffffffffffffffffffffffff1614806112a357507f000000000000000000000000000000000000000000000000000000000000000073ffffffffffffffffffffffffffffffffffffffff1661128a6116dc565b73ffffffffffffffffffffffffffffffffffffffff1614155b156112da576040517fe07c8dba00000000000000000000000000000000000000000000000000000000815260040160405180910390fd5b565b6112e4611006565b50565b8173ffffffffffffffffffffffffffffffffffffffff166352d1902d6040518163ffffffff1660e01b8152600401602060405180830381865afa92505050801561134f57506040513d601f19601f8201168201806040525081019061134c9190612203565b60015b61139057816040517f4c9c8ce30000000000000000000000000000000000000000000000000000000081526004016113879190611ef8565b60405180910390fd5b7f360894a13ba1a3210667c828492db98dca3e2076cc3735a920a3ca505d382bbc5f1b81146113f657806040517faa1d49a40000000000000000000000000000000000000000000000000000000081526004016113ed9190611ed0565b60405180910390fd5b611400838361172f565b505050565b7f000000000000000000000000000000000000000000000000000000000000000073ffffffffffffffffffffffffffffffffffffffff163073ffffffffffffffffffffffffffffffffffffffff161461148a576040517fe07c8dba00000000000000000000000000000000000000000000000000000000815260040160405180910390fd5b565b5f61149561155d565b90505f815f015f9054906101000a900473ffffffffffffffffffffffffffffffffffffffff16905082825f015f6101000a81548173ffffffffffffffffffffffffffffffffffffffff021916908373ffffffffffffffffffffffffffffffffffffffff1602179055508273ffffffffffffffffffffffffffffffffffffffff168173ffffffffffffffffffffffffffffffffffffffff167f8be0079c531659141344cd1fd0a4f28419497f9722a3daafe3b4186f6b6457e060405160405180910390a3505050565b5f7f9016d09d72d40fdae2fd8ceac6b6234c7706214fd39c1cd1e609a0528c199300905090565b6115928484848460016117a1565b6115d357836040517f5274afe70000000000000000000000000000000000000000000000000000000081526004016115ca9190611ef8565b60405180910390fd5b50505050565b5f5f6115e3611812565b90508091505090565b6115f461183b565b6115fd8161187b565b50565b5f33905090565b5f5f63a9059cbb60e01b9050604051815f525f1960601c86166004528460245260205f60445f5f8b5af1925060015f5114831661165b57838315161561164f573d5f823e3d81fd5b5f873b113d1516831692505b806040525050949350505050565b6116716118ff565b156116a8576040517f3ee5aeb500000000000000000000000000000000000000000000000000000000815260040160405180910390fd5b565b5f7f9b779b17422d0df92223018b32b4d1fa46e071723d6817e2486d003becc55f005f1b905090565b5f819050919050565b5f6117087f360894a13ba1a3210667c828492db98dca3e2076cc3735a920a3ca505d382bbc5f1b61191b565b5f015f9054906101000a900473ffffffffffffffffffffffffffffffffffffffff16905090565b61173882611924565b8173ffffffffffffffffffffffffffffffffffffffff167fbc7cd75a20ee27fd9adebab32041f755214dbc6bffa90cc0225b39da2e5c2d3b60405160405180910390a25f815111156117945761178e82826119ed565b5061179d565b61179c611ade565b5b5050565b5f5f6323b872dd60e01b9050604051815f525f1960601c87166004525f1960601c86166024528460445260205f60645f5f8c5af1925060015f511483166117ff5783831516156117f3573d5f823e3d81fd5b5f883b113d1516831692505b806040525f606052505095945050505050565b5f7ff0c57e16840df040f15088dc2f81fe391c3923bec73e23a9662efc9c229c6a005f1b905090565b611843611b1a565b611879576040517fd7e6bcf800000000000000000000000000000000000000000000000000000000815260040160405180910390fd5b565b61188361183b565b5f73ffffffffffffffffffffffffffffffffffffffff168173ffffffffffffffffffffffffffffffffffffffff16036118f3575f6040517f1e4fbdf70000000000000000000000000000000000000000000000000000000081526004016118ea9190611ef8565b60405180910390fd5b6118fc8161148c565b50565b5f600261191261190d6116aa565b6116d3565b5f015414905090565b5f819050919050565b5f8173ffffffffffffffffffffffffffffffffffffffff163b0361197f57806040517f4c9c8ce30000000000000000000000000000000000000000000000000000000081526004016119769190611ef8565b60405180910390fd5b806119ab7f360894a13ba1a3210667c828492db98dca3e2076cc3735a920a3ca505d382bbc5f1b61191b565b5f015f6101000a81548173ffffffffffffffffffffffffffffffffffffffff021916908373ffffffffffffffffffffffffffffffffffffffff16021790555050565b60605f6119fa8484611b38565b9050808015611a3057505f611a0d611b4c565b1180611a2f57505f8473ffffffffffffffffffffffffffffffffffffffff163b115b5b15611a4557611a3d611b53565b915050611ad8565b8015611a8857836040517f9996b315000000000000000000000000000000000000000000000000000000008152600401611a7f9190611ef8565b60405180910390fd5b5f611a91611b4c565b1115611aa457611a9f611b70565b611ad6565b6040517fd6bda27500000000000000000000000000000000000000000000000000000000815260040160405180910390fd5b505b92915050565b5f341115611b18576040517fb398979f00000000000000000000000000000000000000000000000000000000815260040160405180910390fd5b565b5f611b236115d9565b5f0160089054906101000a900460ff16905090565b5f5f5f835160208501865af4905092915050565b5f3d905090565b606060405190503d81523d5f602083013e3d602001810160405290565b6040513d5f823e3d81fd5b5f604051905090565b5f5ffd5b5f5ffd5b5f73ffffffffffffffffffffffffffffffffffffffff82169050919050565b5f611bb582611b8c565b9050919050565b611bc581611bab565b8114611bcf575f5ffd5b50565b5f81359050611be081611bbc565b92915050565b5f60208284031215611bfb57611bfa611b84565b5b5f611c0884828501611bd2565b91505092915050565b5f819050919050565b611c2381611c11565b82525050565b5f602082019050611c3c5f830184611c1a565b92915050565b5f611c4c82611bab565b9050919050565b611c5c81611c42565b8114611c66575f5ffd5b50565b5f81359050611c7781611c53565b92915050565b611c8681611c11565b8114611c90575f5ffd5b50565b5f81359050611ca181611c7d565b92915050565b5f5f5f60608486031215611cbe57611cbd611b84565b5b5f611ccb86828701611c69565b9350506020611cdc86828701611bd2565b9250506040611ced86828701611c93565b9150509250925092565b5f60208284031215611d0c57611d0b611b84565b5b5f611d1984828501611c93565b91505092915050565b5f5ffd5b5f5ffd5b5f601f19601f8301169050919050565b7f4e487b71000000000000000000000000000000000000000000000000000000005f52604160045260245ffd5b611d7082611d2a565b810181811067ffffffffffffffff82111715611d8f57611d8e611d3a565b5b80604052505050565b5f611da1611b7b565b9050611dad8282611d67565b919050565b5f67ffffffffffffffff821115611dcc57611dcb611d3a565b5b611dd582611d2a565b9050602081019050919050565b828183375f83830152505050565b5f611e02611dfd84611db2565b611d98565b905082815260208101848484011115611e1e57611e1d611d26565b5b611e29848285611de2565b509392505050565b5f82601f830112611e4557611e44611d22565b5b8135611e55848260208601611df0565b91505092915050565b5f5f60408385031215611e7457611e73611b84565b5b5f611e8185828601611bd2565b925050602083013567ffffffffffffffff811115611ea257611ea1611b88565b5b611eae85828601611e31565b9150509250929050565b5f819050919050565b611eca81611eb8565b82525050565b5f602082019050611ee35f830184611ec1565b92915050565b611ef281611bab565b82525050565b5f602082019050611f0b5f830184611ee9565b92915050565b5f81519050919050565b5f82825260208201905092915050565b8281835e5f83830152505050565b5f611f4382611f11565b611f4d8185611f1b565b9350611f5d818560208601611f2b565b611f6681611d2a565b840191505092915050565b5f6020820190508181035f830152611f898184611f39565b905092915050565b5f5f60408385031215611fa757611fa6611b84565b5b5f611fb485828601611bd2565b9250506020611fc585828601611c93565b9150509250929050565b5f819050919050565b5f611ff2611fed611fe884611b8c565b611fcf565b611b8c565b9050919050565b5f61200382611fd8565b9050919050565b5f61201482611ff9565b9050919050565b6120248161200a565b82525050565b5f60208201905061203d5f83018461201b565b92915050565b7f4e487b71000000000000000000000000000000000000000000000000000000005f52601160045260245ffd5b5f61207a82611c11565b915061208583611c11565b925082820390508181111561209d5761209c612043565b5b92915050565b5f6120ad82611c11565b91506120b883611c11565b92508282026120c681611c11565b915082820484148315176120dd576120dc612043565b5b5092915050565b7f4e487b71000000000000000000000000000000000000000000000000000000005f52601260045260245ffd5b5f61211b82611c11565b915061212683611c11565b925082612136576121356120e4565b5b828204905092915050565b5f61214b82611c11565b915061215683611c11565b925082820190508082111561216e5761216d612043565b5b92915050565b5f819050919050565b5f67ffffffffffffffff82169050919050565b5f6121aa6121a56121a084612174565b611fcf565b61217d565b9050919050565b6121ba81612190565b82525050565b5f6020820190506121d35f8301846121b1565b92915050565b6121e281611eb8565b81146121ec575f5ffd5b50565b5f815190506121fd816121d9565b92915050565b5f6020828403121561221857612217611b84565b5b5f612225848285016121ef565b9150509291505056fea2646970667358221220d1a025be2e4b2600236a61b7c3a4b550c6f2b39f0280b112f852bc4783d2b9e264736f6c634300081e0033","linkReferences":{}},"methodIdentifiers":{"UPGRADE_INTERFACE_VERSION()":"ad3cb1cc","balanceOf(address)":"70a08231","earned(address)":"008cc262","exit()":"e9fad8ee","getReward()":"3d18b912","i_stakingToken()":"e2c44502","initialize(address,uint256)":"cd6dc687","lastUpdateTime()":"c8f33c91","owner()":"8da5cb5b","proxiableUUID()":"52d1902d","renounceOwnership()":"715018a6","rescue(address,address,uint256)":"20ff430b","rewardPerToken()":"cd3daf9d","rewardPerTokenStored()":"df136d65","rewardRate()":"7b0a47ee","rewards(address)":"0700037d","setRewardRate(uint256)":"9e447fc6","stake(uint256)":"a694fc3a","totalSupply()":"18160ddd","transferOwnership(address)":"f2fde38b","updateRewardsOnly()":"dbb341a6","upgradeToAndCall(address,bytes)":"4f1ef286","userRewardPerTokenPaid(address)":"8b876347","version()":"54fd4d50","withdraw(uint256)":"2e1a7d4d"},"storageLayout":{"storage":[{"astId":62129,"contract":"src/StakingVault/StakingVaultV1.sol:StakingVaultV1","label":"rewardRate","offset":0,"slot":"0","type":"t_uint256"},{"astId":62132,"contract":"src/StakingVault/StakingVaultV1.sol:StakingVaultV1","label":"lastUpdateTime","offset":0,"slot":"1","type":"t_uint256"},{"astId":62135,"contract":"src/StakingVault/StakingVaultV1.sol:StakingVaultV1","label":"rewardPerTokenStored","offset":0,"slot":"2","type":"t_uint256"},{"astId":62138,"contract":"src/StakingVault/StakingVaultV1.sol:StakingVaultV1","label":"totalSupply","offset":0,"slot":"3","type":"t_uint256"},{"astId":62143,"contract":"src/StakingVault/StakingVaultV1.sol:StakingVaultV1","label":"balanceOf","offset":0,"slot":"4","type":"t_mapping(t_address,t_uint256)"},{"astId":62148,"contract":"src/StakingVault/StakingVaultV1.sol:StakingVaultV1","label":"userRewardPerTokenPaid","offset":0,"slot":"5","type":"t_mapping(t_address,t_uint256)"},{"astId":62153,"contract":"src/StakingVault/StakingVaultV1.sol:StakingVaultV1","label":"rewards","offset":0,"slot":"6","type":"t_mapping(t_address,t_uint256)"},{"astId":62158,"contract":"src/StakingVault/StakingVaultV1.sol:StakingVaultV1","label":"__gap","offset":0,"slot":"7","type":"t_array(t_uint256)45_storage"}],"types":{"t_address":{"encoding":"inplace","label":"address","numberOfBytes":"20"},"t_array(t_uint256)45_storage":{"encoding":"inplace","label":"uint256[45]","numberOfBytes":"1440","base":"t_uint256"},"t_mapping(t_address,t_uint256)":{"encoding":"mapping","key":"t_address","label":"mapping(address => uint256)","numberOfBytes":"32","value":"t_uint256"},"t_uint256":{"encoding":"inplace","label":"uint256","numberOfBytes":"32"}}},"id":101}